:020000040000FA
:20000000CC7DFC92BC8E0CA554A4F8944CA40093C08E0CA558A4FC947454FC92BC8E0CA52B
:2000200050A4F494E484FC92BC8E08A550A4F89430A50493BC8E08A55CA40095E054F89221
:20004000C08E0CA54CA4F4943884FC92BC8E0CA554A4F89418A60493BC8E08A558A4009583
:200060002C51F892BC8E10A550A4F4949483FC92BC8E0CA554A4F894F0A60493C08E08A5B2
:200080005CA4FC949051FC92BC8E10A550A4F494E482FC92B88E0CA554A4F894749F0493CD
:2000A000C08E08A55CA40095FC53FC92BC8E0CA550A4F494F082FC92C08E0CA554A4F894D9
:2000C000C8A00493C08E08A55CA4FC94C054FC92C08E10A550A4F89474880093BC8E0CA5E7
:2000E00054A4F894B8A10493C08E08A55CA400954855F892C08E10A550A4F494008800933B
:20010000BC8E0CA554A4F89498A20493C08E0CA55CA4FC94A451FC92BC8E10A550A4F49402
:200120009487FC92C08E0CA554A4F89458A30493C08E08A558A400951452FC92BC8E10A582
:2001400050A4F49428870093BC8E10A554A4FC94D09A0493C08E0CA55CA4FC945C52FC928E
:20016000BC8E10A550A4F494B8860093BC8E0CA554A4FC94989B0493C08E0CA55CA4FC9457
:20018000C052FC92BC8E10A550A4F494388C0093BC8E08A558A4F894649C0893C08E08A5D8
:2001A00058A400951453FC92C08E10A54CA4F894B48B0493C08E0CA554A4F894209D04938D
:2001C000C08E08A558A4FC949C4FF892BC8E10A54CA4F4943C8B0093C08E0CA554A4FC94CB
:2001E000E09D0893C08E08A558A4FC94E84FFC92BC8E10A550A4F494B88A0493C08E0CA548
:2002000058A4F894A09E0893C08E0CA558A4FC943450F892BC8E10A550A4F4942C8A009320
:20022000C08E0CA554A4FC9494950893BC8E0CA558A4FC947C50F892BC8E10A54CA4F4941F
:20024000D0890093C08E0CA558A4F89444960493C08E0CA558A4FC94B850F892BC8E0CA5A2
:200260004CA4F494908F0493C08E0CA554A4FC9400970493C08E08A558A4FC94F050F8924A
:20028000BC8E10A54CA4F494248F0093C08E0CA558A4FC94B4970493C08E0CA558A4FC94A9
:2002A000E44DF892BC8E10A54CA4F494C08E0493C08E0CA554A4F89460980493BC8E0CA51A
:2002C00058A4F894184EF892BC8E10A550A4F494488E0093C08E10A558A4F894908E009386
:2002E000C08E0CA558A4FC94404EF492BC8E10A54CA4F494D88D0093BC8E0CA554A4F89471
:20030000388F0093C08E0CA558A4FC94684EF892BC8E10A54CA4F494D4930493BC8E0CA548
:2003200058A4FC94E88F0093C08E0CA558A4FC94904EF892C08E10A54CA4F494809304930F
:20034000C08E0CA554A4F8948C900093C08E0CA558A4F894944CFC92C08E0CA54CA4F09403
:2003600014930093BC8E10A554A4FC9438910093C08E0CA554A4FC94A84CF892C08E10A558
:200380004CA4F494B4920093BC8E0CA558A4F89480860493BC8E08A558A4F894B44C0C93CE
:2003A000BC8E10A54CA4F49468926093BC8E08A554A4F8942C879893BC8E08A554A4FC9401
:2003C000D44CAC93B88E0CA54CA4F494B0980494B88E08A558A4FC94C4870494B08E04A526
:2003E00058A4F894044DF893B08E08A54CA4F49450980894B08E04A558A4FC945488F093E0
:20040000AC8E04A558A4F8944C4CE893AC8E08A550A4F494FC97F093B08E04A55CA4FC946E
:20042000E488E493AC8E04A558A4FC94504CD493A88E04A554A4F494CC97D893AC8E00A55B
:200440005CA4FC947089D093B08E00A558A4FC94544CAC93A88E00A554A4F8947C979493C9
:20046000AC8E00A564A4FC94D47D8493AC8E00A560A4F8943C4C7493A88E08A554A4F4943C
:2004800038977093AC8E04A560A4FC94447E6493B08E04A560A4FC94484C7493AC8E0CA559
:2004A00054A4F494AC9D6093AC8E04A560A4FC94F07E6493B08E08A55CA4FC943C4C6493AA
:2004C000A88E08A554A4F494749D4C93A88E04A560A4FC947C7F4893B08E08A560A4FC9401
:2004E0006C4E4493A88E0CA554A4F494149D4C93AC8E08A560A4FC9400804493AC8E08A5BB
:200500005CA4F894304E4893AC8E0CA554A4F494D49C5C93B08E08A560A400954873549306
:20052000AC8E04A55CA4F8940C4E5C93AC8E0CA554A4F494809C7893B08E08A55CA4FC94F6
:2005400018748493A88E04A558A4F894C44D7C93A88E08A554A4F4941CA39C93B08E08A535
:2005600060A4FC9474749893A48E08A558A4F8949C4D8C93A88E0CA554A4F494FCA2A0932D
:20058000B08E08A55CA4FC94F874B893A88E08A558A4F894F853A893A48E08A550A4F494DD
:2005A000D0A2A893AC8E08A560A4FC944875BC93A88E04A558A4F894BC53BC93A48E08A563
:2005C00054A4F49490A2A093A88E08A560A4FC94C067DC93A88E08A558A4FC948053DC9378
:2005E000A48E0CA550A4F49458A2C093A48E04A560A4FC943868DC93A48E10A558A4F89462
:200600004053DC93A48E10A554A4F494D8A8B893A48E08A560A4FC94B068D893A48E08A5D1
:200620005CA4F8940C53E893A48E08A554A4F49488A8CC93A48E04A560A4FC943069D893F3
:20064000A48E04A554A4F894D052E493A48E08A550A4F89464A8E093A48E08A55CA4FC9455
:200660008869D493A88E0CA554A4F894EC5A2C94A88E0CA554A4F49430A83894A88E08A5C3
:2006800060A4FC94F8692894AC8E08A554A4F894985A4494B08E08A554A4F494FCA768946A
:2006A000BC8E04A560A4009580635C94C48E08A554A4F894545A4494D08E0CA554A4F49443
:2006C000C8A75494D88E08A560A40095A0633C94DC8E0CA554A4F894205A5094E88E14A518
:2006E00054A4F49420ADE894F08E0CA560A40095C0630495048F0CA554A4F494E85904950F
:20070000108F0CA554A4F494FCAC2494E88E08A55CA4FC94CC63B493F48E08A554A4F494D1
:20072000D8629093F88E0CA550A4F494DCACE893F48E08A560A40095E8632494108F08A58F
:2007400050A4F494C0623C940C8F0CA554A4F894DCACA094088F04A55CA400957460DC9486
:20076000288F04A554A4F8949462C894248F08A554A4F494E8AC10952C8F04A560A400952D
:2007800050607095408F08A554A4F894546268953C8F0CA554A4F49440AF8095488F04A571
:2007A00064A400956060A495408F0CA554A4F8944062BC95508F0CA558A4F49430AFE49540
:2007C000648F08A564A4FC9478601096488F0CA558A4F894386C40965C8F08A55CA4F494B9
:2007E00024AF7C96808F04A564A400957860C895648F0CA558A4F8941C6C2095588F0CA589
:200800005CA4F89410AFC4948C8F0CA568A4FC94145D6C94848F10A55CA4F894F06B7C949D
:200820008C8F10A558A4F89410AFC894E88F08A564A40095185DDC94D48F10A558A4F894FF
:20084000DC6B0495B88F10A558A4F894F0AE8895F88F04A560A40095345DB095F08F0CA5AA
:200860005CA4F894D46B3495D88F10A558A4F894F8AE7095F88F08A560A4FC94285DF495BF
:20088000209008A554A4F494DC6BC895049010A558A4F4940CAFDC9508900CA560A40095FC
:2008A000045D0096289018A554A4F4940877249670902CA554A4F89408AF1896649044A57C
:2008C00060A4FC94EC5CFC9588905CA550A4F494F476D895C49088A554A4F894FCAE70958B
:2008E000B490A4A560A4009534591C95BC90A4A554A4F494E8768894CC90CCA554A4F894B4
:2009000010AF30926890C4A560A40095385928915490B8A550A4F894E4765C908C90E0A56A
:2009200054A4F49484AADC8F289160A65CA4FC940C59A08F8491A8A650A4F8948476888FC7
:20094000B091E0A654A4F89464AA6C8FC491D0A660A4FC94B458788FD491C4A650A4F49486
:20096000B481E88F2892D8A658A4F89458AAA8908092F8A664A400959458C891DC9224A706
:200980005CA4F49488819892049330A768A4F89428AACC92C89220A778A4FC946853389115
:2009A000EC9100A778A4F494B481D88F7091FCA680A4F894B0A9B88E4C9130A798A4FC9461
:2009C0002453F08DA091A0A7A8A4F494B081588DB891ACA7C8A4F894E0A00C8DD0919CA770
:2009E000DCA4FC94E852E88CE491B4A7D8A4F494D481E88CF091BCA7ECA4F894C4A0C88CE4
:200A00007C9190A7F0A40095CC52908CFC90BCA7E0A4F0942088B48CA890F0A7ECA4F89465
:200A2000C0A0F88C3490C8A7F0A4FC94D052FC8B208CA8A590A4F494F4878C893085E8A24E
:200A400018A4F494C0A04088908348A204A40095E04ED887188510A220A4F494FC875C8861
:200A6000148770A24CA4FC94B0A0A889B08804A354A40095D84E208B208A0CA448A4F494BD
:200A8000FC87C88C588B90A450A4F89410970C8E4C8CE0A450A40095C84E048F0C8DE8A4F4
:200AA00048A4F494F887F48FC48DE8A450A4F89418978890088EE8A454A4FC94D44EE09060
:200AC000488EF0A448A4F494E4872491888EE8A450A4F89420976491B88EE8A454A40095EB
:200AE000D84E8891C48EF0A448A4F494748EB091C88EECA450A4F8942897E491D08EECA492
:200B000054A4FC94BC4EF891D48EF4A448A4F4945C8E2492D88EF0A450A4FC944897489275
:200B2000D88EF0A450A4FC947C4B5492DC8EF8A448A4F494588E6C92DC8EF8A450A4F894A6
:200B400050978C92E08EF4A450A4FC949C4B9492E08EFCA448A4F094448E9C92DC8EFCA471
:200B600054A4F894C48CAC92DC8EF8A454A4FC94A84BA892DC8EFCA448A4F894388EAC9222
:200B8000D88EF8A450A4FC94D08CB892DC8EF8A454A4FC94AC4BB092DC8EFCA444A4F494E8
:200BA0000895BC92DC8EF8A450A4F894008DC092DC8EFCA454A4FC94B84BB492DC8EFCA400
:200BC00048A4F094F494C092DC8EF8A450A4FC94188DC092DC8EFCA454A4FC94304AB892F4
:200BE000D88E00A548A4F494E094BC92DC8EFCA450A4F894448DC092DC8EFCA450A4FC9479
:200C00001C4AB892D88E00A544A4F094E494C092D88E00A554A4F8949C81C492D88E00A5D6
:200C200050A4FC94204ABC92D88E00A548A4F494BC94C492D88E00A550A4FC94C481CC9221
:200C4000D88E04A554A4F894284AC092D88E04A548A4F494D89BD092D88E00A554A4FC9452
:200C6000D481CC92D88EFCA450A4F8941C4AC092D48E00A548A4F494D49BCC92D48E00A534
:200C800054A4FC94F481CC92D88E00A554A4F894A44BC092D48E04A544A4F494D49BCC92E1
:200CA000D48EFCA454A400952082CC92D88E04A550A4FC94884BC492D48E04A548A4F4946A
:200CC000A49BD492D88EFCA450A4FC945075D492D88E04A550A4FC94784BC892D48E04A5FF
:200CE00048A4F494849BD892D88E00A554A400957C75D492DC8E00A550A4FC94704BC89260
:200D0000D88E08A544A4F494649BD892D48E04A550A4FC94C475D892D88E00A550A4FC9426
:200D2000604BCC92D88E04A548A4F09478A2D892D88E00A550A400950876D892DC8E00A51C
:200D400050A4FC94544BCC92D48E08A548A4F09478A2D892D88E00A554A4FC944876D89254
:200D6000D88E08A54CA4F894BC51CC92D88E04A548A4F09454A2D892D88E04A554A4FC9403
:200D80007076D492D88E04A54CA4F894A851CC92D88E08A544A4F49434A2D892DC8E04A54F
:200DA00054A4FC947068D492D88E04A54CA4F8947C51CC92D48E08A544A4F09418A2DC9214
:200DC000D88E00A554A4FC949868D492D48E04A550A4F8946451D092D48E04A548A4F494F9
:200DE00020A9E092D48E00A554A40095C868D892D88E04A550A4F8944851D492D48E04A5F1
:200E000048A4F494F8A8E092D88E00A554A4FC941469D892D88E04A54CA4F8945859D8922C
:200E2000D48E04A548A4F494E0A8E492D88E00A554A4FC946469DC92D48E04A550A4F894DC
:200E40002C59DC92D48E04A548A4F494A4A8E892D88E04A554A4FC94EC61DC92D48E04A5FD
:200E60004CA4F894F858DC92D88E08A548A4F09494A8E492D88E04A558A400950C62E09283
:200E8000D48E08A54CA4F494D058D892D48E08A548A4F49430AEEC92D88E04A554A40095BE
:200EA0002862E092D48E04A548A4F894AC58DC92D48E08A548A4F49418AEE892D48E04A573
:200EC00058A4FC942862E092D88E08A54CA4F4946461E092D48E08A54CA4F494ECADE49232
:200EE000D48E04A554A400953862E092D48E04A548A4F4942461E092D48E08A54CA4F09455
:200F0000E0ADE892D88E04A554A4FC94B05EE092D48E04A54CA4F494DC60E092D48E08A573
:200F200048A4F494A4ADEC92D88E00A558A4FC94C85EE092D48E08A550A4F4949860E49246
:200F4000D48E08A548A4F4947CADF092D88E04A558A40095F85EE092D48E04A54CA4F89474
:200F60003860E492D48E08A54CA4F894ECAFEC92D48E04A558A400952C5FE092D48E08A517
:200F800048A4F4940060E492D08E04A54CA4F494F4AFF092D48E04A558A400953C5FE492B6
:200FA000D48E04A54CA4F8945C69E492D08E0CA54CA4F894ECAFF092D48E04A558A400952B
:200FC0007C5FE092D48E08A548A4F894F468E492D48E08A54CA4F494F8AFF092D48E04A5B0
:200FE00058A4FC94E45BDC92D48E0CA548A4F4949C68E892D08E08A54CA4F494E8AFF49213
:20100000D48E08A558A40095F45BE492D48E08A548A4F4943868E892D08E08A54CA4F4944B
:20102000E8AFF092D88E04A558A4FC942C5CE492D48E08A548A4F494B867EC92D48E08A5CF
:201040004CA4F894F4AFF092D48E04A558A40095345CE892D48E08A54CA4F4942072E892B6
:20106000D48E08A550A4F894D8AFF092D88E04A558A400957C5CE092D48E08A54CA4F89463
:20108000A871E892D08E08A54CA4F494F8AFF092D48E04A558A40095AC58E492D48E08A5EC
:2010A0004CA4F8942871E892D08E0CA54CA4F49404B0EC92D48E04A558A40095EC58E09296
:2010C000D48E0CA54CA4F494B470E492D08E08A54CA4F89428ADEC92D48E04A558A4009575
:2010E0000C59E492D48E08A54CA4F4943C70E892D08E08A550A4F89460ADEC92D88E08A53F
:2011000058A400953059E892D08E0CA548A4F494587BEC92D08E08A550A4F8949CADEC9215
:20112000D08E08A558A400954C59E892D48E0CA548A4F494E07AE892D08E0CA550A4F8940A
:20114000D0ADEC92D48E04A558A400957C55E892D48E08A548A4F4942C7AEC92D08E0CA5F7
:2011600050A4F894FCADF092D48E04A558A40095B055EC92D48E0CA548A4F494A479E89287
:20118000D08E08A550A4F8943CAEF092D08E04A558A40095CC55EC92D48E08A54CA4F4949A
:2011A0002479F092D08E08A550A4F894ACA7F092D48E04A558A40095F855EC92D48E08A53A
:2011C0004CA4F4948478F092D08E08A550A4F89410A8F092D48E04A558A400954456EC92A0
:2011E000D08E0CA548A4F494A082F092D08E08A550A4F89480A8F092D08E04A558A4FC9400
:201200007C56E892D48E08A54CA4F4944C82F492D48E08A550A4F894F0A8F092D08E08A5F3
:2012200058A4FC94BC52EC92D08E08A548A4F8940482F092CC8E08A550A4F89450A9F09209
:20124000D08E04A554A4FC94D452EC92D08E08A54CA4F4949881F492D08E08A550A4F894AE
:2012600020A1F092D08E04A558A400952853F092CC8E0CA548A4F0943081F492D48E08A5D5
:2012800050A4F89498A1F092D08E08A558A4FC946C53F092D08E0CA54CA4F4944087F49267
:2012A000D48E08A550A4FC9400A2F492D08E08A558A4FC948C53EC92CC8E0CA548A4F49400
:2012C000EC86F092D08E08A550A4F89468A2F492D08E04A558A40095984FF092D08E0CA5EF
:2012E00048A4F4949886F092D08E08A554A4F89418A3F092D08E04A558A400955051EC9257
:20130000CC8E0CA54CA4F4943C86F092CC8E08A554A4F894E49AEC92D08E08A558A40095E3
:201320002C52EC92CC8E0CA548A4F4949486F492D08E08A554A4F894609BF092D08E08A57B
:2013400058A4FC949052F092D08E0CA54CA4F494788CF092D08E08A554A4F894D09BF09214
:20136000D48E08A558A4FC94DC52EC92D08E0CA548A4F4943C8CF092D08E08A550A4F894CE
:20138000389CF092D08E08A558A4FC945C4FEC92D08E0CA548A4F494108CF092D08E08A58B
:2013A00050A4F894B09CF092D08E04A558A4FC94844FEC92CC8E0CA54CA4F494B88BF092B3
:2013C000CC8E0CA554A4F894349DF092D08E08A558A4FC94BC4FEC92CC8E0CA54CA4F49488
:2013E000788BF492CC8E08A554A4F894A493F492D08E04A554A4FC94F44FF092D08E0CA5B9
:201400004CA4F4942C8BF492CC8E0CA554A4FC941894F492D08E04A558A400950050F092E8
:20142000D08E0CA54CA4F0942C91F092D08E0CA554A4F8949494F492D48E08A558A4FC940E
:201440002850F092D08E0CA54CA4F494F890F092D08E0CA554A4F8940895F492D48E08A53C
:2014600058A4FC94644DF092D08E0CA548A4F494A090F092D08E08A554A4F8948095F4924E
:20148000D08E08A558A4FC947C4DF092CC8E10A548A4F4945490F092D08E08A554A4F894F2
:2014A000008BF492D08E0CA558A4FC94984DF492D08E0CA54CA4F4942490F092D08E08A54D
:2014C00054A4F8946C8BF892D08E08A558A40095944DF492D08E10A54CA4F8947C96F492DD
:2014E000CC8E08A554A4FC94CC8BF892D08E0CA554A4FC94B04DF492D08E10A54CA4F494D7
:201500003C96F092D08E0CA554A4F894288CF492D08E08A558A4FC946C4CF092CC8E0CA5CE
:2015200050A4F8940496F092CC8E08A558A4FC947C8CF892D08E08A554A4FC94784CF4920D
:20154000CC8E10A54CA4F494D495F092CC8E0CA554A4FC94F080F492CC8E10A554A4F894FD
:20156000644CF092CC8E10A548A4F494A095F092CC8E0CA558A4F8945881F492D08E0CA5FE
:2015800054A4F894604CF492CC8E10A54CA4F494189CF092CC8E0CA558A4F894C081F4927E
:2015A000D08E08A554A4FC945C4CF092CC8E10A548A4F494EC9BF492D08E0CA554A4FC9447
:2015C0001482F892CC8E0CA554A4F8947C4DF092D08E10A548A4F094C09BF492CC8E0CA5A2
:2015E00054A4FC945482F492D08E08A554A4F494544DEC92CC8E0CA54CA4F494949BF09229
:20160000D08E0CA554A4FC949C82F492D08E08A550A4FC94404DEC92CC8E10A548A4F49472
:20162000609BF492CC8E0CA558A4FC94F075F492CC8E0CA554A4F8942C4DEC92CC8E10A512
:201640004CA4F4946C9BF892D08E0CA558A4FC942876F892CC8E0CA550A4F894284DF0923C
:20166000CC8E0CA54CA4F09420A2F892D08E08A554A4FC946C76F492CC8E08A550A4FC9419
:20168000204DEC92CC8E10A548A4F49400A2F492D08E0CA554A4FC94B476F092CC8E0CA566
:2016A00050A4F4940453EC92C88E10A54CA4F494E4A1F492D08E0CA554A4FC94DC76F492DC
:2016C000D08E0CA550A4F894E052EC92CC8E10A54CA4F494D8A1F492D08E0CA558A4FC94AA
:2016E000EC68FC92D08E0CA54CA4F894D852F092CC8E10A548A4F094C4A1F892D08E0CA554
:2017000054A4FC940C69F892D08E0CA54CA4F894C452F092CC8E10A548A4F49488A8FC92DE
:20172000D08E0CA558A4FC943469F892D08E0CA550A4F894A052F092CC8E10A54CA4F4945D
:2017400080A80093D08E0CA554A4FC947469F892D08E0CA554A4F894EC5AF092C88E0CA56E
:201760004CA4F49454A8FC92D08E0CA554A4FC949C69F892CC8E10A54CA4F494D85AF09206
:20178000C88E10A54CA4F09458A80093D08E0CA558A4FC945863F892CC8E10A550A4F494CC
:2017A000B45AF092CC8E10A548A4F49448A8FC92D08E0CA558A400956463F892D08E10A594
:2017C0004CA4F894A45AF092CC8E10A548A4F494A0ADFC92D08E0CA558A4FC946C63F892BB
:2017E000D08E0CA550A4F4949C5AF092C88E10A54CA4F494A8AD0093CC8E0CA558A4FC94E4
:201800007063F892CC8E10A54CA4F494D463F092CC8E0CA54CA4F49494AD0093CC8E0CA5C9
:2018200058A400956863F892CC8E0CA550A4F494CC63F092CC8E10A54CA4F49484ADFC9244
:20184000D08E0CA558A4FC946C63F492CC8E10A54CA4F894DC63F092C88E10A54CA4F494C9
:2018600088ADFC92D08E0CA554A400950060F892CC8E0CA54CA4F894D063F092D08E0CA5D4
:201880004CA4F49488ADFC92CC8E08A558A4FC940460F492D08E0CA550A4F494D463F0924C
:2018A000CC8E10A550A4F8945CAF0093CC8E0CA558A400950460F092D08E10A54CA4F494EE
:2018C000CC63F092CC8E10A54CA4F49464AFFC92D08E0CA558A400952C60F092CC8E10A572
:2018E00048A4F4943C6EF092CC8E0CA54CA4F49460AFFC92CC8E0CA55CA4FC941860F4928F
:20190000CC8E0CA54CA4F494186EF092CC8E10A54CA4F89440AFFC92CC8E0CA558A4FC949D
:20192000545CF492D08E0CA54CA4F494F06DF492CC8E10A54CA4F494FCAEFC92CC8E08A541
:2019400058A40095505CF492CC8E10A54CA4F494F86DF492CC8E10A550A4F89494AE0093EE
:20196000D08E08A558A40095745CF492CC8E0CA54CA4F4940C6EF092D08E10A550A4F49467
:201980007CAE0093CC8E0CA558A40095745CF492D08E10A54CA4F494D079F892D08E10A527
:2019A0004CA4F49484AEFC92D08E08A558A4FC946C5CF092D08E10A54CA4F894B879F892C4
:2019C000D08E10A550A4F8947CAE0093D08E08A558A40095B858F492CC8E10A54CA4F494FE
:2019E000B479F492CC8E10A550A4F8946CAEF892D08E0CA558A4FC94A458EC92CC8E10A5DD
:201A00004CA4F494BC79F092CC8E10A550A4F494DCA8FC92D08E08A558A4FC94BC58F092CD
:201A2000CC8E10A550A4F494F479F492CC8E0CA554A4F8947CA8FC92D08E0CA558A4FC944C
:201A40005458F092C88E10A54CA4F494E483F892D08E10A554A4F894C8A80093D08E08A53F
:201A600058A4FC94F458F492CC8E10A54CA4F494B884FC92D08E10A554A4F8940CA90093D8
:201A8000D08E08A554A4F8943C59F092CC8E10A54CA4F0940885F892CC8E10A550A4FC9473
:201AA000B4A80093D08E0CA558A4FC940855F092CC8E10A54CA4F494B884F892CC8E0CA565
:201AC00050A4F894ACA8FC92D08E08A554A4FC942855F092CC8E0CA54CA4F494D884FC92A5
:201AE000CC8E0CA554A4F894E09FFC92CC8E0CA554A4FC944855F092CC8E10A54CA4F49411
:201B00005884FC92CC8E10A550A4F894E09F0093D08E08A558A4FC943055F092D08E14A505
:201B20004CA4F494D089FC92CC8E10A550A4FC94C89F0093D08E0CA558A4FC942055F09227
:201B4000CC8E14A550A4F4946889F492D08E10A550A4FC94C49F0093D08E08A558A4FC945B
:201B60000451F492D08E10A548A4F494A489FC92D08E10A550A4F8948C9F0493D08E08A5E8
:201B800058A4FC94D850F892CC8E10A548A4F894C0890093D08E0CA554A4F8948095009369
:201BA000D08E08A558A4FC94B450F892D08E10A548A4F494E4890093D08E10A554A4FC94DE
:201BC00040950093D08E08A558A4FC948450F892CC8E10A54CA4F49434900093D08E0CA5BB
:201BE00050A4F89410950093D08E0CA558A4FC945C50F492CC8E10A54CA4F494489000936E
:201C0000CC8E10A554A4FC94D8940493D08E0CA554A40095444DFC92D08E10A54CA4F494E4
:201C200054900493D08E10A550A4F894AC940493D08E0CA554A4FC94404DFC92CC8E10A5FE
:201C40004CA4F09464900093D08E0CA550A4F894A889FC92D08E0CA554A4FC94404DF49291
:201C6000CC8E10A54CA4F4945090F892D08E0CA554A4FC947C89F892CC8E0CA554A4FC94BA
:201C80004C4DF492CC8E10A54CA4F0940497FC92D08E0CA550A4FC944889F892CC8E0CA580
:201CA00058A4FC94404DF492CC8E10A54CA4F8943097F892CC8E10A554A4FC940089F49203
:201CC000CC8E0CA554A4FC94484DF492CC8E10A54CA4F4948497FC92CC8E0CA558A4F89493
:201CE000B088F492CC8E0CA558A4FC94784CF092CC8E10A54CA4F894C897FC92D08E10A5BE
:201D000058A4FC944888F492CC8E0CA550A4F8948C4CF492CC8E10A54CA4F4941098FC923B
:201D2000CC8E0CA554A4FC94847BF492CC8E0CA554A4F894B44CF492CC8E14A54CA4F094EF
:201D40006498FC92CC8E0CA558A4F8942C7BF492CC8E08A550A4F894DC4CF492CC8E10A5F5
:201D60004CA4F0947C9FFC92CC8E0CA554A4FC94BC7AF492CC8E0CA550A4F894FC4CF092A2
:201D8000D08E10A54CA4F094A89FFC92C88E0CA554A4FC94187AF092CC8E0CA550A4F894B9
:201DA0009451F092CC8E10A54CA4F49404A0F892CC8E0CA558A4FC94B479F092CC8E0CA5B6
:201DC00050A4F894DC51F092CC8E0CA54CA4F49450A0FC92CC8E0CA554A4FC94146BEC9243
:201DE000CC8E10A550A4F8946052F092CC8E10A54CA4F49490A0FC92CC8E0CA554A4FC9448
:201E0000D46AF492D08E0CA54CA4F8947452F492CC8E10A548A4F49420A7F892CC8E0CA548
:201E200058A4FC94986BF492CC8E10A54CA4F8945452F492CC8E10A54CA4F494BCA7F49266
:201E4000C88E10A558A4F894EC69EC92CC8E0CA550A4F894B85BF092C88E10A54CA4F49479
:201E600010A8F492CC8E0CA554A4FC947C69F092CC8E10A550A4F894F85BF492CC8E10A5B3
:201E80004CA4F4944CA8F892CC8E0CA554A4FC94B863F492CC8E10A54CA4F894685CF49243
:201EA000CC8E10A54CA4F49494A8F892CC8E0CA558A4FC949863F092C88E0CA550A4F8943A
:201EC000D05CF492CC8E10A54CA4F494B8ADF892CC8E0CA558A4FC942463F092CC8E10A52B
:201EE00050A4F494105DF492CC8E10A54CA4F494A0ADF492CC8E0CA558A4FC945463F09249
:201F0000CC8E10A54CA4F894405DF892CC8E10A54CA4F494B8ADF892CC8E0CA558A4FC9402
:201F20003C63F492D08E10A54CA4F4941C67FC92CC8E10A550A4F494DCADFC92CC8E0CA533
:201F400058A4FC941C63F892D08E10A550A4F4945867F892CC8E10A550A4F894E8ADFC9262
:201F6000D08E0CA558A4FC94A05FF892CC8E10A54CA4F4949467FC92CC8E10A550A4F494A2
:201F800008AEFC92CC8E0CA558A4FC947C5FFC92CC8E10A54CA4F494D467FC92CC8E10A59E
:201FA00050A4F89420AF0093CC8E08A558A4FC94605FF892CC8E0CA54CA4F8941468F892D6
:201FC000CC8E10A54CA4F89404AFF892CC8E0CA558A4FC94385FF892CC8E10A550A4F494F6
:201FE0002873F892CC8E14A550A4F894ECAEF892CC8E08A558A4FC94285FFC92C88E10A552
:202000004CA4F4945873FC92CC8E0CA550A4F89404AF0093CC8E0CA558A40095905BF8920D
:20202000CC8E10A54CA4F494C4730093CC8E10A54CA4F8940CAFFC92D08E08A554A40095E3
:20204000805BFC92C88E10A54CA4F4940074FC92C88E10A54CA4F49494ACF892CC8E0CA53A
:202060005CA4FC94685BF892CC8E10A54CA4F4943874FC92CC8E10A550A4F89474ACFC9285
:20208000CC8E0CA558A40095405BF892C88E10A548A4F8949480F892CC8E0CA54CA4F494DB
:2020A00068ACFC92CC8E0CA558A4FC94345BF892CC8E10A548A4F494CC80F892CC8E10A566
:2020C00050A4F89448ACF892CC8E08A558A400956857F492C88E10A54CA4F494E480F892B4
:2020E000CC8E10A550A4F8942CACFC92CC8E0CA558A4FC945C57F892CC8E10A54CA4F49490
:202100006481F892C88E10A550A4F8942CA4F892CC8E08A558A4FC945857F892CC8E10A590
:202120004CA4F4947881FC92C88E0CA554A4FC9408A4F892D08E08A558A4FC945C57F4920B
:20214000C88E10A54CA4F494A881F892C88E0CA554A4FC94D4A3FC92D08E08A55CA4FC941A
:202160003457F892CC8E10A54CA4F494B887F892C88E0CA550A4F494BCA3FC92D08E08A57F
:2021800058A4FC941857F492CC8E10A54CA4F494DC87F892C88E0CA554A4F89484A3FC920A
:2021A000CC8E0CA554A4FC941453F492CC8E10A54CA4F4942088F892CC8E0CA550A4F8945B
:2021C0006CA3FC92CC8E0CA554A4FC941853F892CC8E10A54CA4F4944488F892C88E0CA5F6
:2021E00050A4F894DC99FC92CC8E0CA554A4FC940853F892C88E14A548A4F4944088F8920F
:20220000CC8E0CA550A4F894B4990093D08E08A554A4FC94F452F892CC8E10A54CA4F49469
:202220002C8EFC92C88E0CA554A4FC9498990093D08E0CA554A4FC94D852FC92CC8E10A5A5
:2022400048A4F494608EF892CC8E0CA550A4F89468990093CC8E0CA558A4FC94584FFC92A7
:20226000CC8E10A54CA4F494788EF892C88E0CA550A4F89454990093CC8E0CA558A4FC94A9
:20228000484FF892CC8E10A54CA4F494708EF892CC8E08A550A4F894D88E1C93CC8E0CA567
:2022A00054A4FC94484F5493C48E10A548A4F494708E6C93C08E0CA554A4F894C08E7C93C0
:2022C000C08E0CA554A4F894444F7893B88E10A54CA4F494C8947093B08E08A554A4FC9498
:2022E000C08E7893B08E08A558A4FC94444F9093A88E08A54CA4F494B4949493A48E00A5B7
:2023000054A4F894CC8E9493A48E04A558A4FC945C4D9C93A08E04A54CA4F4949494A893C7
:202320009C8E00A558A4F894E08EA0939C8E00A558A4F894784DA4939C8E04A550A4F894FF
:202340009494BC939C8E00A55CA4FC944C83A093988E00A558A4FC94884D78939C8E04A59B
:2023600054A4F49494947C939C8E04A55CA4009564836C93988E00A55CA4FC946C4D5C9355
:20238000A08E04A554A4F4949C947893A08E04A55CA4FC94888364939C8E00A560A4FC94DF
:2023A0004C4D50939C8E04A554A4F494089B4893A08E04A55CA4FC94AC835093A08E04A580
:2023C0005CA4FC94604D34939C8E04A554A4F494F09A3093A08E04A55CA4FC94E0833C93C0
:2023E000A48E04A55CA4FC94F44D24939C8E04A550A4F494C09A3093A48E04A55CA4FC94A3
:2024000038844493A48E04A558A4FC94E44D3893A08E04A550A4F494949A4493A08E00A59B
:202420005CA4FC94C8775893A48E04A55CA4FC94E44D5493A48E08A550A4F494649A709303
:20244000A08E04A55CA4FC9448788893A48E04A558A4FC94B84D8493A08E08A550A4F49460
:20246000BCA09493A08E04A55CA4FC94D478A093A08E04A558A4FC94C44D80939C8E04A599
:2024800050A4F49490A09C93A08E04A55CA4FC944879AC939C8E00A554A4FC942C52909302
:2024A000988E08A550A4F49444A0B8939C8E04A55CA4FC94C479B4939C8E04A554A4F89460
:2024C000E4519493988E08A550A4F494E49FB493988E08A55CA4FC94746CC893948E04A51E
:2024E00058A4F8949451CC93948E04A550A4F494909FD893948E04A560A4FC94406DDC93B4
:20250000988E00A558A4FC943851CC93908E08A550A4F494F4A5D093948E04A55CA40095D9
:20252000406EDC93948E04A558A4F894D850D8938C8E08A550A4F49478A5D493948E04A506
:2025400060A4FC94606FE093948E04A558A4F8940458EC93908E04A550A4F49404A5E89310
:20256000908E04A55CA4FC946870D493948E08A558A4F894685740948C8E08A554A4F49494
:2025800064A458948C8E00A55CA40095EC652C94988E08A554A4F894BC567494988E08A59E
:2025A00050A4F494C0A39494988E00A560A4FC9470667494A88E04A558A4F8940456709412
:2025C000B88E04A554A4F89454A38094B88E00A560A4009504675094CC8E04A558A4F8941F
:2025E0004C557494E08E0CA550A4F49414A91495EC8E04A55CA4FC94246830950C8F08A5E5
:2026000058A4F89498545495108F04A554A4F4942CA87894E48E04A560A4FC946C69A493FA
:20262000F08E08A554A4F494685CA093EC8E08A554A4F49498A7E093EC8E04A560A40095E3
:20264000B86A0C94108F08A554A4F894805B5894108F08A550A4F494ECA6C894188F08A517
:202660005CA400950C65F8942C8F04A558A4F894805A1C95308F08A550A4F49424A65895B2
:202680005C8F04A560A4FC945C65B095688F08A558A4F8945C59D0955C8F0CA550A4F894AA
:2026A0002CABE4957C8F00A560A4F894C065E895688F08A558A4F89418581096588F04A516
:2026C00058A4F49470AA3496708F00A560A4009554664896708F08A55CA4F894AC5F8C9658
:2026E000688F08A554A4F49498A9C096848F00A564A4FC9478672496748F00A558A4F89406
:20270000385EA895808F0CA558A4F49450A84C95908F08A564A4FC942064FC94988F08A57D
:202720005CA4F894105C2895CC8F08A558A4F49484A75895F48F04A564A4FC94E46464953B
:20274000E48F08A55CA4F4940C5BB49504900CA558A4F49404ACFC950C9004A564A4F8943E
:2027600074655896F88F0CA558A4F8947859D095049014A554A4F4944CABE895249018A5EA
:2027800060A4FC94F865FC95089030A554A4F894F860D4952C9040A554A4F8943CAAF8956D
:2027A000389050A55CA40095C06604963C9068A550A4F894485F1096849080A550A4F494AC
:2027C00038A9F89594909CA55CA4FC94EC67CC95A490A8A550A4F4949C5D9495B890B0A526
:2027E00050A4F49434A84095BC90BCA558A4FC949864E494DC90DCA550A4F494D05B449493
:20280000E490F4A54CA4F89400A7F0918C90FCA558A4FC942C65A090BC9024A650A4F89467
:20282000185AD88FD49030A64CA4F49488AB748F54917CA658A4FC94D065508FA491BCA699
:2028400050A4F8945058408FB891C0A650A4F89488AA288FBC91ACA65CA40095A4663C8F60
:20286000E491C8A654A4F894785FBC8F4C92E0A654A4F4944CA950908092CCA664A4FC94FA
:20288000DC676091A892D0A664A4F894945D3492C892D4A664A4F49410A8BC9290929CA63B
:2028A00078A40095B8643891389140A674A4F494B05BF48F9C9028A66CA4F494ACA6F88E3B
:2028C000709000A67CA400958865348ECC9074A670A4F894C459948D08918CA670A4F8942F
:2028E00034AB488D5C9194A680A4FC942C660C8D8C91A0A67CA4F894D057F88C989194A601
:2029000078A4F89414AA1C8DC09184A688A40095F466148D6C9198A680A4FC94985E288DD7
:202920001891A0A680A4F894C8A8748D08919CA68CA4FC949068788CE88D54A574A4F894DE
:20294000985CF888E88684A358A4F89464A70887548640A360A4FC942865C88650876CA33A
:2029600058A4F494845AE087C4889CA354A4F494DCA5C489A889F8A35CA4FC94C065DC8BCD
:20298000F88ABCA454A4F8947058748DFC8B0CA554A4F49470AA9C8EB08C10A560A4009582
:2029A0008C66908F408D14A558A4F89464564890E08D14A558A4F89418A9BC90348E0CA538
:2029C00064A4FC942C680891688E0CA560A4F894E85C4891808EF8A45CA4F89484A7849168
:2029E0007C8EE4A46CA40095B06AB091948EF4A460A4FC94945AE0919C8EFCA460A4F8943E
:202A0000E4A50892A08E04A570A4FC94206E2092A48E0CA568A4F89470583C92A88E24A5C8
:202A200064A4F49440A46092AC8E28A574A4009594667092B08E28A570A4F89458567C9219
:202A4000AC8E2CA56CA4F09468A29492B08E28A578A400956468B092AC8E28A574A4FC942E
:202A60003054C092B08E2CA56CA4F49454A7D492B48E24A574A40495346BD892B48E24A5A8
:202A80006CA4F8944452DC92AC8E24A568A4F89488A5E892AC8E20A574A40095E86EE892D8
:202AA000A88E24A570A4F894EC57E492A88E24A56CA4F494B8A3F092AC8E20A574A400959E
:202AC000AC72EC92AC8E20A56CA4F894C055E892A88E20A568A4F894F0A1F892AC8E18A58B
:202AE00070A400951869F092AC8E1CA56CA4F8948053F092AC8E20A564A4F49414A0F89271
:202B0000AC8E20A570A400953C6CF492AC8E24A568A4FC949851F092A88E24A564A4F89442
:202B2000B4A4F892AC8E24A570A400959070F492AC8E28A56CA4F894F04FF092A88E2CA516
:202B400068A4F894E4A2FC92AC8E24A570A400956C74F492AC8E24A56CA400959854F4929D
:202B6000A88E28A568A4F894F4A0FC92AC8E24A570A400955078F892AC8E20A568A4FC94FF
:202B80006852F892AC8E28A564A4F894F49EFC92AC8E24A56CA40095646EF892AC8E28A52B
:202BA00068A4FC948C50F492AC8E2CA564A4F894F89CFC92AC8E28A56CA40095D072FC92DA
:202BC000AC8E28A568A4FC940C4FF892AC8E2CA560A4F4949CA10093AC8E24A56CA4FC9463
:202BE000E876FC92AC8E24A56CA4FC941C4EF892A88E24A560A4F494949FFC92AC8E20A507
:202C00006CA4FC94DC7AFC92AC8E20A568A4FC941051F492AC8E20A560A4F894689DFC928C
:202C2000B08E20A56CA40095D87EFC92B08E1CA568A4FC94744FF892AC8E20A560A4F89491
:202C4000A09BFC92B08E18A570A4FC94C882FC92AC8E1CA568A4FC94544EF892A88E20A576
:202C600064A4F89484990093AC8E1CA570A4FC94F079FC92B08E1CA568A4FC94CC4DF8923C
:202C8000AC8E20A564A4F89490970093AC8E1CA56CA4FC94F07DFC92AC8E10A56CA40095BD
:202CA000AC4DFC92AC8E10A564A4F8941C9C0093B08E0CA56CA40095F0810093AC8E08A540
:202CC0006CA4FC94E84DF892AC8E08A564A4F894F4990093B08E00A570A40095EC8500936A
:202CE000B48E04A570A40095F04DF892AC8E08A568A4F894EC970093B08E08A570A4FC9455
:202D0000A0890093B48E08A56CA4FC94AC4DFC92AC8E04A564A4F894C0950093B08E04A59B
:202D20006CA4009584810493B48E08A56CA4FC94CC4DFC92B08E0CA564A4F894A4930493CB
:202D4000B48E00A568A4FC9488850493B48E0CA56CA4FC94444EFC92B48E10A564A4F49412
:202D6000F8970493B48E04A564A4FC9478890493B48E08A560A4FC94F84EFC92B08E20A5B8
:202D800054A4F494D0950493B48E20A55CA4FC94348D0493B88E1CA558A4FC94CC4D009389
:202DA000B08E24A54CA4F494C8930093B48E24A558A4FC94C4900093B88E1CA558A4009590
:202DC0003C4EFC92B48E24A54CA4F494A8910093B08E24A554A4F89468890093B08E1CA57E
:202DE00054A4FC94E04EFC92AC8E1CA548A4F094A08F0093AC8E14A554A4FC94588D089367
:202E0000AC8E10A554A4FC94D04FFC92AC8E18A54CA4F894AC930493B08E10A55CA4FC94C2
:202E200004910493B48E0CA560A4FC94F450FC92B08E10A554A4F49484910093B08E08A507
:202E40005CA4FC94A4940493B08E10A55CA40095EC4EFC92AC8E20A550A4F494448F0493DE
:202E6000B08E28A558A4FC9444980893B48E28A554A4FC9404500093B08E30A54CA4F4943B
:202E8000288D0493B48E18A550A4FC94B09B0493B48E14A554A4FC942451FC92B48E24A5F0
:202EA00044A4F494288B0493B48E24A548A4FC9408950493B88E24A54CA4009560520093C4
:202EC000B48E24A544A4F49420890093B88E28A550A4F894A0980493B88E20A554A4009541
:202EE000D053FC92B08E24A550A4F894248D0093B48E20A558A4FC94289C0493B48E20A561
:202F000060A400952855FC92B08E2CA558A4F494048B0493B08E24A560A4FC94649F08931B
:202F2000B08E24A568A400958052FC92AC8E30A558A4F89404890493B08E34A558A4FC942B
:202F400088A20893B48E3CA55CA40095D8530493B48E4CA54CA4F49424870093B48E4CA516
:202F600054A4FC94949C0493B88E4CA55CA4009504550493B48E4CA54CA4F894708500930F
:202F8000B48E48A550A4FC94A49F0893B48E40A560A4009540560093B48E4CA554A4F89400
:202FA0001C890493B48E4CA558A4F894B0A20893B48E44A560A4009568570093B48E48A5E8
:202FC00050A4F89420870493B08E40A554A4F894CCA50893B08E30A560A4FC94C054009332
:202FE000B08E30A54CA4F4942C850493AC8E24A554A4FC94E0A80893B08E18A558A4FC94C9
:2030000014560093AC8E20A550A4F89404830493B08E20A554A4F8944CA30893B08E20A502
:2030200058A4FC9480570093B08E28A54CA4F494787F0493AC8E28A554A4F8947CA6089341
:20304000B08E24A55CA40095D8580093AC8E28A550A4F494B4840493B08E2CA554A4F8942C
:2030600074A90893B08E2CA558A40095205A0093B08E34A54CA4F49440820493A88E38A5F0
:2030800054A4F894D4AB0493AC8E38A55CA40095B0570093AC8E44A54CA4F894887E009318
:2030A000AC8E44A550A4F89474AD0493AC8E44A558A40095E8580093AC8E48A548A4F8948F
:2030C000387A0493AC8E4CA550A4F89480AE0893B08E50A558A4FC94285A0093AC8E5CA524
:2030E00050A4F494D4750093AC8E60A550A4F89444AC0893B08E64A554A40095805B0093EC
:20310000A88E64A548A4F49494710093AC8E68A544A4F894C0AD0493B88E60A550A40095D1
:20312000E05C0093C08E64A544A4F894CC78FC92C08E5CA544A4F894ACAE0493C08E54A528
:2031400050A40095585EFC92C48E58A544A4F49490740093C48E54A548A4F494F0AE049358
:20316000C88E50A550A40095285CFC92C88E54A548A4F4946470FC92C88E54A548A4F49481
:20318000ECAE0093CC8E50A554A4FC94805DFC92C88E50A54CA4F494586CFC92C88E4CA564
:2031A0004CA4F894CCAE0493C88E48A558A4FC94C45EFC92C88E48A548A4F8949068FC92C2
:2031C000C48E4CA548A4F894FCAE0493C88E48A554A4FC940060FC92CC8E4CA548A4F89477
:2031E0002C6F0093C88E4CA548A4F894E0AE0493C88E48A554A4FC943C61FC92CC8E4CA57C
:203200004CA4F494286BFC92C88E48A548A4F89468AE0493C88E48A554A4FC942C5F0093C4
:20322000C88E48A548A4F4946C67FC92CC8E48A548A4F4948CAD0093CC8E44A554A4FC9424
:203240007060FC92C88E48A548A4F494C063FC92C88E48A54CA4F494B4AE0893CC8E44A5AD
:2032600058A4FC94C061FC92CC8E48A548A4F4941C60FC92C88E48A54CA4F49418AE049336
:20328000CC8E44A554A4FC94E8620093C88E48A548A4F4942C660093CC8E44A54CA4F094F3
:2032A00010AD0893CC8E44A554A4FC941464FC92CC8E44A54CA4F8949862FC92C88E48A55B
:2032C0004CA4F4944CAB0493CC8E44A558A4FC9424620093C88E44A550A4F894EC5EFC9269
:2032E000C48E48A54CA4F49424A90493CC8E44A558A4FC9480630093C88E44A54CA4F494B7
:203300008C5BFC92C88E44A548A4F094D0A60493CC8E44A554A4FC948C640093CC8E48A5E7
:2033200050A4F4945858FC92C88E48A548A4F49494AA0493CC8E44A554A4FC943866FC9250
:20334000CC8E44A54CA4F8942055FC92C88E48A548A4F49478A80493C88E44A554A4FC9476
:20336000DC690093C88E44A54CA4F894605AF892C88E48A548A4F0940CA60093CC8E44A53B
:2033800058A4FC94346FFC92CC8E48A54CA4F4943857F892CC8E44A548A4F49470A3049337
:2033A000C88E44A558A4FC945C670093C88E44A550A4F4940454F892C88E44A54CA4F49498
:2033C000D8A00493CC8E40A558A4F894B46B0093C88E44A54CA4F8944C51F892C88E48A540
:2033E0004CA4F09428A50093CC8E44A554A4FC9414710093CC8E44A550A4F494304FFC924A
:20340000C88E48A548A4F494B0A20493CC8E44A554A4FC944076FC92C88E44A550A4F49442
:203420000C53FC92C88E48A54CA4F09408A00093CC8E44A554A4F8944C7B0093CC8E48A545
:2034400050A4F4947850F892C88E44A54CA4F094809D0093C88E44A558A4FC94C4720093A7
:20346000CC8E48A550A4F494B04EFC92C88E48A54CA4F494249B0093CC8E44A550A4FC9429
:20348000CC770093CC8E44A550A4FC94944DF892C88E48A548A4F094389F0093CC8E44A5C4
:2034A00054A4FC94D87C0093CC8E44A554A4F894484DFC92C88E44A548A4F494C49C00930D
:2034C000D08E44A554A4F89474810493C88E44A554A4F894344EF892CC8E48A54CA4F0940B
:2034E000549A0093CC8E44A554A4FC94DC850493CC8E40A554A4F894604DFC92CC8E48A543
:2035000048A4F494CC970093C88E44A554A4F894347E0093CC8E40A550A4F894284DFC9277
:20352000C88E44A548A4F49488950093CC8E44A550A4F894A8820093C88E40A550A4F894ED
:203540007C4DFC92C88E48A54CA4F49428930493CC8E40A554A4F89400870093CC8E40A5EB
:2035600054A4F894084EFC92C88E44A548A4F09464970493CC8E44A554A4F8942C8B009391
:20358000CC8E40A554A4F894C04EF892C88E44A54CA4F094F0940093CC8E40A554A4F89443
:2035A000408F0493CC8E40A550A4FC94984DF892C88E48A548A4F094C0920093CC8E44A598
:2035C00054A4F89408930093CC8E3CA554A4FC94344EFC92C88E44A548A4F4948890009308
:2035E000CC8E3CA554A4F494F48B0093D08E3CA558A4F894004FFC92C88E48A54CA4F094A3
:203600006C8E0093CC8E40A554A4F894E08F0093CC8E40A554A4F8941450FC92C88E44A564
:203620004CA4F49478920093CC8E40A550A4F894AC930493CC8E3CA558A4F8944451FC92FA
:20364000C88E40A54CA4F49460900093CC8E44A554A4F49408970093CC8E3CA558A4F8947C
:20366000284FFC92CC8E44A54CA4F094308E0093CC8E40A554A4F894889A0093CC8E40A586
:2036800054A4F8941850FC92C88E40A54CA4F494548C0493CC8E40A554A4F894E4930493B5
:2036A000CC8E3CA558A4FC945851FC92C88E44A54CA4F094448A0493CC8E40A554A4F89431
:2036C0005C970493CC8E40A558A4FC949852FC92CC8E40A54CA4F494308E0093CC8E44A5D2
:2036E00050A4F8949C9A0493D08E3CA558A4FC94D853FC92CC8E40A548A4F494248C009303
:20370000C88E40A554A4F894F09D0093CC8E40A554A4FC945451FC92C88E40A548A4F49421
:20372000188A0093CC8E3CA550A4F49404A10493CC8E3CA554A4F8948452FC92CC8E44A5FB
:2037400048A4F0942C880093CC8E44A550A4F894B09A0493CC8E3CA558A4FC94D053F8929A
:20376000C88E40A548A4F49468860093CC8E40A550A4F494E09D0093CC8E38A554A4FC948F
:203780001055FC92CC8E3CA540A4F09484840093CC8E30A53CA4F89408A10493CC8E08A516
:2037A0003CA4FC944056FC92CC8E08A52CA4F09428880093CC8E0CA538A4F894D0A304935A
:2037C000D08E08A540A4FC947457FC92CC8E18A534A4F4947C860093CC8E18A540A4F49482
:2037E0008CA60493CC8E18A544A4F894D854FC92CC8E1CA538A4F494C4840093C88E14A552
:203800003CA4F8943CA90493CC8E0CA540A4FC941C56FC92CC8E10A538A4F094BC82009301
:20382000C88E0CA538A4F49478A30493CC8E0CA540A4F8945457FC92C48E10A530A4F09458
:203840009C7FFC92C88E0CA534A4F49438A60893C88E10A540A4F8949058FC92C48E14A5E3
:2038600030A4F49400850093C48E10A538A4F494E8A80493C48E10A540A4F894CC59009313
:20388000C08E18A534A4EC942C830093C08E18A538A4F49448AB0493C48E10A540A4F89413
:2038A0003857FC92C08E10A534A4F09440800093C08E10A53CA4F094FCAC0493C08E0CA594
:2038C00044A4FC945858FC92C08E14A534A4F094587C0093C08E14A538A4F09468A804935A
:2038E000C48E10A540A4F8948859FC92BC8E14A534A4F09480780093BC8E14A538A4F49491
:20390000D8AA0493C08E10A540A4F894AC5A0093C08E14A534A4F494F8800093BC8E14A50D
:2039200038A4F494A8AC0493C08E10A540A4FC94AC5B0093BC8E14A534A4F094607D009358
:20394000BC8E14A538A4F094DCAD0893BC8E10A540A4FC944859FC92B88E14A534A4F094E3
:2039600078790093BC8E14A534A4F09490AE0893BC8E10A540A4FC94605A0093BC8E14A5C8
:2039800034A4EC94A0750093BC8E14A534A4F09438AC0493C08E10A540A4F894805B00936C
:2039A000B88E14A534A4F0941C72FC92BC8E10A538A4F494A4AD0493BC8E0CA540A4F894DA
:2039C000B05CFC92BC8E14A534A4F094B06E0093C08E10A538A4F49460AE0893BC8E0CA532
:2039E00040A4F894BC5DFC92C08E14A534A4F0946C76FC92BC8E10A538A4F094C0AE049379
:203A0000BC8E10A544A4F894CC5EFC92BC8E10A538A4F094D072FC92BC8E14A538A4F494E5
:203A2000D4AE0493BC8E0CA540A4F894605CFC92BC8E14A534A4F4946C6FFC92B88E14A5ED
:203A400038A4F494D4AE0493C08E10A540A4F894785D0093B88E14A538A4F094106C0093A0
:203A6000BC8E14A538A4F094C8AE0493C08E10A540A4F894805EFC92BC8E14A538A4F09494
:203A8000CC68FC92BC8E14A538A4F094F0AE0893C08E10A544A4F894A45FFC92BC8E14A5BD
:203AA00038A4F09418700093BC8E14A538A4F094C4AE0493BC8E10A544A4F894A860009311
:203AC000BC8E14A538A4F494D46C0093BC8E14A538A4F09490AE0093BC8E10A544A4FC9401
:203AE000385EFC92BC8E14A538A4F4949C69FC92BC8E10A538A4F09420AE0493BC8E10A5E5
:203B000040A4F8945C5F0093BC8E14A538A4EC946C660093BC8E14A538A4F094F8AE08937F
:203B2000BC8E10A544A4FC947C600493BC8E10A538A4F49454630093B88E10A538A4F4948F
:203B4000A0AE0893BC8E0CA544A4F89494610093B88E14A538A4F4943C6A0093BC8E14A5E6
:203B60003CA4F0943CAE0893BC8E10A544A4F894A8620093BC8E10A538A4F09420670093D3
:203B8000B88E14A534A4F09474AD0493BC8E10A544A4F89450600093BC8E14A538A4F494F5
:203BA0001864FC92B88E14A538A4F09450AC0493BC8E10A544A4F8944C61FC92BC8E10A55C
:203BC0003CA4F09410610093B88E14A534A4F09460AE0493BC8E0CA544A4F8945062FC92CE
:203BE000BC8E14A538A4F094445EFC92B88E14A534A4F094B0AD0493C08E10A544A4F8946C
:203C00003C63FC92BC8E10A538A4F094905BFC92B88E10A538A4F094A0AC0493BC8E10A562
:203C200044A4F89430640093BC8E14A538A4F094E861FC92B88E10A538A4F0943CAB0893D2
:203C4000BC8E10A544A4F8944065FC92C08E10A538A4F494FC5EFC92B88E14A534A4F09414
:203C600070A90493BC8E10A544A4F894F462FC92BC8E14A538A4F494405CFC92B48E14A5B1
:203C800038A4F0949CA70493BC8E10A544A4F894F0630093BC8E10A538A4F494A059FC92A7
:203CA000B88E14A534A4F09488AB0493BC8E10A540A4F894EC640093B88E14A53CA4F49426
:203CC0000457FC92B88E18A538A4EC94E8A90493BC8E14A544A4F894B8660093BC8E14A549
:203CE0003CA4F0941C5DFC92B88E18A538A4EC9424A80493C08E14A544A4F894E869FC923D
:203D0000BC8E14A538A4F0945C5AFC92BC8E14A534A4EC9450A60493BC8E14A540A4FC949D
:203D200098640093BC8E18A538A4F094E057FC92BC8E18A534A4F09474A40493BC8E10A5B7
:203D400044A4F894EC650093BC8E14A53CA4F0946855FC92BC8E14A538A4F094E0A80493D7
:203D6000BC8E14A544A4F89498680093BC8E14A540A4F0940053F892BC8E18A53CA4EC948A
:203D80000CA70493BC8E14A544A4F894846C0093BC8E14A53CA4F494D058FC92BC8E14A5BB
:203DA00038A4EC942CA50493BC8E14A540A4F894A8700093BC8E14A53CA4F0946856FC926E
:203DC000BC8E14A538A4F09448A30493BC8E18A544A4F89458670093BC8E14A540A4F494C2
:203DE0000054FC92BC8E18A53CA4EC942CA10493BC8E18A548A4F894C86AFC92BC8E1CA5CC
:203E000040A4F494C451FC92B88E1CA53CA4F09400A60493BC8E18A548A4F894106F00935A
:203E2000B88E14A540A4F494F44FFC92BC8E18A538A4F09400A40893BC8E14A544A4F89429
:203E400020730493BC8E14A540A4F894904E0093B88E18A53CA4F094F0A10493BC8E14A5C2
:203E600048A4F49410770093BC8E18A548A4F494B852FC92B88E1CA540A4F09408A00493F3
:203E8000BC8E18A54CA4F894E87A0093BC8E18A548A4F494B850FC92BC8E1CA540A4F09426
:203EA000149E0093BC8E18A54CA4FC9438710093BC8E18A544A4F494144FFC92BC8E1CA587
:203EC0003CA4EC94149C0493BC8E18A544A4F8943C75FC92B88E18A544A4F494FC4DFC9237
:203EE000B88E18A538A4F094E4A00493BC8E18A548A4F49400790093BC8E14A544A4F4944A
:203F00006C4DFC92B88E1CA53CA4EC94189F0093B88E18A548A4F494B07C0093BC8E18A56C
:203F200048A4F494E84FF892B88E1CA53CA4F094309D0493BC8E18A548A4F89448800093A3
:203F4000BC8E18A544A4F494944EFC92B88E1CA53CA4F094409B0893BC8E18A548A4F8941A
:203F6000E0760093B88E18A544A4F094B44DFC92BC8E18A53CA4F09474990093BC8E18A548
:203F800048A4F894887A0093BC8E18A548A4F494644DFC92B88E1CA53CA4EC944C9E049372
:203FA000BC8E18A544A4F494147E0093BC8E18A548A4F494504DFC92B88E1CA53CA4F09454
:203FC000749C0093BC8E18A548A4F89494810093BC8E18A544A4F494444EF892BC8E18A57D
:203FE0003CA4F094A89A0093C08E14A548A4F894F084FC92BC8E18A544A4F0949C4DFC921D
:20400000B88E18A53CA4F094F8980093BC8E18A544A4F494D87B0093BC8E14A544A4F49446
:20402000584DF892BC8E18A538A4EC9438970493BC8E14A544A4F494347F0093BC8E14A5CC
:2040400044A4F4944C4DFC92BC8E18A53CA4EC94049C0893BC8E18A548A4F4949482009303
:20406000BC8E18A544A4F494884DF892B88E18A538A4EC94389A0093BC8E18A544A4F4942F
:20408000C0850493BC8E14A544A4F494E44DF892BC8E18A53CA4EC9464980493BC8E14A519
:2040A00044A4F494F4880093BC8E18A540A4F494544DF892BC8E18A53CA4F094C09604938B
:2040C000BC8E18A544A4F494E88B0093BC8E18A544A4F494584DF892BC8E18A53CA4F09452
:2040E00004950093B88E14A548A4F4941C830493BC8E14A544A4F494944DFC92B88E18A506
:2041000040A4F09440930493BC8E14A548A4F89448860493B88E18A548A4F894E84DFC92AF
:20412000BC8E1CA53CA4EC9420980493BC8E18A544A4F49448890093BC8E14A54CA4F8946B
:204140005C4EFC92BC8E18A53CA4EC9478960093BC8E18A544A4F494388C0493C08E14A546
:2041600044A4F094484DF892BC8E1CA53CA4EC94D4940493C08E18A544A4F494008F0093AD
:20418000BC8E18A544A4F894804DFC92BC8E1CA53CA4EC944C930093BC8E18A544A4F494F5
:2041A00050860493BC8E18A544A4F494DC4DF892BC8E1CA53CA4EC94D4910493BC8E18A5FA
:2041C00048A4F89434890093BC8E18A548A4F894584EFC92BC8E18A540A4F0949896009334
:2041E000C08E18A544A4F494F88B0093BC8E14A548A4F894004FF892B88E18A53CA4EC9477
:204200000C950093B88E18A544A4F494C48E0493BC8E14A548A4F894904DFC92B88E1CA521
:204220003CA4F0948C930493BC8E18A548A4F49458910493C08E14A548A4F894F84D009312
:20424000BC8E1CA53CA4F094EC910493BC8E18A544A4F494DC880493C08E18A548A4F894E6
:204260006C4EF892BC8E1CA540A4EC9480900093BC8E18A548A4F8949C8B0493BC8E18A5A4
:2042800048A4F494F44EFC92BC8E18A540A4F09458950493BC8E18A548A4F494308E049317
:2042A000BC8E14A54CA4F894B04F0093BC8E1CA540A4F094DC930493BC8E18A548A4F494F9
:2042C000B4900093BC8E14A548A4F8944050F892BC8E20A53CA4EC9458920093BC8E18A57F
:2042E00048A4F4944C930493BC8E18A548A4F894184EF892BC8E1CA53CA4F094C89000930B
:20430000BC8E1CA544A4F494C0950493C08E1CA548A4F894AC4EFC92B88E1CA540A4F094B8
:20432000748F0493C08E1CA54CA4F494788D0493C08E18A54CA4F494444FFC92BC8E18A515
:2043400044A4F094108E0093C08E18A550A4F494E08F0493BC8E14A554A4F894E04FFC92EF
:20436000B88E1CA544A4EC94E0920493BC8E18A550A4F49450920493BC8E18A550A4F89442
:20438000A0500093BC8E1CA548A4F0946C910893BC8E18A554A4F494B8940893B88E18A516
:2043A00058A4F894704E0493B88E1CA54CA4EC9400900893B88E18A550A4F49410970C93B9
:2043C000BC8E14A554A4F894EC4E0493B88E18A548A4F094908E0C93B88E18A550A4F494D6
:2043E000D48E0C93B88E14A554A4F894A44F0493B88E18A544A4EC94348D0893B88E18A5E5
:2044000050A4F49460910493B88E18A554A4F4945C500093B48E1CA54CA4F094E89108934B
:20442000B88E14A550A4F494CC930893B88E14A554A4F49430510093B48E18A544A4F09409
:2044400084900893BC8E18A54CA4F49410960893B88E10A550A4F494C04E0493B88E14A5D2
:2044600048A4EC941C8F0C93B88E18A550A4F49464980893B88E14A550A4F494404F0493CF
:20448000B88E18A548A4EC94E48D0C93BC8E18A550A4F49464901093B88E18A554A4F49400
:2044A000EC4F0493B88E1CA548A4F094A08C0C93B88E14A554A4F494C8921093B88E14A56D
:2044C00054A4F494C0500C93B88E1CA548A4F09470911093B88E18A554A4F49428951093AF
:2044E000B88E18A554A4F8949C510C93B88E1CA548A4F094E08F1493B88E18A550A4F4949D
:2045000050971493B88E14A554A4F89474521493B88E1CA548A4EC94808E1493B88E18A5F2
:2045200050A4F49470991C93B88E18A554A4F494E04F1893B88E1CA548A4F0942C8D149313
:20454000B88E18A554A4F494A49B1C93BC8E1CA554A4F89484502493B88E1CA548A4F09459
:20456000AC8B1C93B88E18A550A4F494F4932493B88E18A554A4F8947C512893B88E20A57E
:2045800048A4F094708A2493B88E1CA550A4F49438963093B48E1CA558A4F89410522C933A
:2045A000B88E1CA548A4F094408F3493B88E18A550A4F49450983493B88E14A550A4F89441
:2045C0009C523493B48E1CA548A4F0942C8E4093B48E1CA550A4F494509A5093B88E14A5DB
:2045E00054A4F494B84F4493B88E1CA54CA4F094E88C4893B48E1CA554A4F494689C649315
:20460000B88E18A554A4F8948C506C93B88E1CA548A4EC94E48B7893B48E1CA550A4F494CC
:2046200058948493B88E18A558A4F4945C518C93B48E1CA54CA4F094708A8493B88E1CA595
:2046400050A4F49484968C93B88E1CA554A4F8941452E093B48E20A548A4F094208FC893C0
:20466000B48E20A550A4F4949098E493B88E1CA554A4F894C8528893B48E20A54CA4F094DD
:20468000E08D3C93B48E1CA558A4F4949C9A5093B48E1CA558A4F89410507C93B48E20A53D
:2046A00048A4F094A48C9893B48E1CA550A4F4948C9CB893B48E18A554A4F894D850B89347
:2046C000B48E20A548A4F0945C8BD093B88E20A554A4F4949094F093B48E1CA554A4F49464
:2046E000C051EC93B48E20A54CA4F0943C8A3094B48E20A550A4F49488964094B88E1CA5A9
:2047000058A4F8945C520C94B88E20A54CA4F0940C8F2094BC8E20A554A4F4949498409466
:20472000BC8E1CA558A4F89404532894C08E20A54CA4EC942C8E3894C88E20A554A4F4942F
:20474000589A6094EC8E20A558A4F89494534C94088F20A54CA4F094F48C4894FC8E20A56A
:2047600058A4F494309C6094DC8E20A558A4F894AC504894D08E20A54CA4F094C88B8C945C
:20478000E88E1CA554A4F094089EC894148F20A558A4F4945851EC94008F24A54CA4EC9487
:2047A000C48A3895148F24A554A4F494E0954895388F20A558A4F4940C525495348F28A5B9
:2047C00048A4EC94AC897895348F24A54CA4F49490976C95508F20A554A4F89498528C95CC
:2047E000508F28A548A4F094808EEC95608F28A550A4F4945899C8957C8F20A554A4F89434
:204800003C53F895848F2CA544A4EC94808D3096708F24A550A4F494FC9A7C96AC8F24A56D
:2048200054A4F4943C50B896E08F2CA548A4F0947C8CD896CC8F2CA54CA4F494AC9CDC969A
:20484000C88F28A550A4F494A450F8960C9030A544A4F094808B209714902CA550A4F494A6
:204860005494FC96DC8F2CA550A4F8943051B495D88F30A544A4F094AC8AEC94E08F2CA59A
:204880004CA4F4940C965894CC8F2CA54CA4F494D8515894609034A540A4EC94A08F549415
:2048A000B09038A548A4F094C09738949C9044A550A4F49468524494AC9048A544A4EC9494
:2048C000888E5C94C89054A54CA4F0945099D094C89060A550A4F4949C4FB495EC9064A52E
:2048E00044A4EC94B48D989628916CA54CA4F494D89A90974C9178A550A4F4940850189888
:2049000048916CA544A4EC94B08C8095FC9068A54CA4F094489290930C9168A550A4F494C4
:20492000B0504092149164A548A4EC94C48BDC91A89188A54CA4F494FC93E491049284A52E
:2049400050A4F8943451CC914C9280A544A4F094E8908491449284A54CA4F4948895749160
:2049600038926CA550A4F494C451889128927CA544A4EC94FC8FE490EC9180A54CA4F0945A
:2049800020978090209270A550A4F8944C528890749278A548A4F094F88E048FA09038A59A
:2049A0004CA4F0948C988489948AD0A454A4F494784F5886408AC8A448A4EC94508E78861D
:2049C000508AF0A450A4F0940C9AA888588B0CA54CA4F494D84FA88BDC8C04A540A4F0943C
:2049E000488D948E848EF4A448A4F4942891B490AC8EF0A450A4F4943C50A091A48EF4A4D4
:204A000050A4F0946C8C0C92A88EF8A458A4F494C892BC92AC8EF8A458A4F894B450D892BE
:204A2000AC8E04A548A4EC949091E092AC8E04A54CA4F8944494E892A88E08A554A4F8947C
:204A40001051E092A48E0CA540A4F094A090E892AC8E14A54CA4F094D495EC92B08E20A53D
:204A600050A4F494844EE492B08E2CA548A4EC94A48FF092B48E38A558A4F4943C97F49246
:204A8000B88E44A55CA4F494DC4EEC92B88E5CA560A4EC94D08EF492BC8E5CA56CA4F49425
:204AA000148EFC92C08E64A56CA4F4943C4FF492C08E70A568A4F094F88D0093C08E68A560
:204AC0006CA4F494908F0093C48E60A558A4F894B04FFC92C08E60A548A4F09438930093FF
:204AE000C48E54A550A4F4943891FC92C48E50A550A4F4942050F492C48E50A540A4EC9434
:204B00006C92FC92C48E48A54CA4F494A492F892C48E48A550A4F894F44DF492C08E4CA5CD
:204B200044A4F094A091F892C48E48A548A4F4940094F892C48E40A54CA4F894304EF092CA
:204B4000C08E54A524A4F094D090F492C48E50A540A4F4947C8AF492C88E50A544A4F494E2
:204B60006C4EEC92C88E54A544A4F094EC8FF892C88E68A550A4F494148CF892CC8E84A5B1
:204B800054A4F494EC4EFC92C08E84A550A4EC9490950093C08E84A554A4F494588D0093BB
:204BA000C08E2CA55CA4F8942C4FFC92C08E2CA55CA4EC94E4940093C48E38A55CA4F894DC
:204BC000AC8E0493C88E44A55CA4F8949C4FFC92C88E4CA548A4F49418941C93DC8E64A537
:204BE00054A4F49400902C93F08E78A55CA4F894CC4D3493048F94A558A4EC945093F09232
:204C0000B48E34A560A4F4946C91D892A48E20A55CA4F4943C4EE892B08E30A54CA4EC9480
:204C2000B492F492C08E34A54CA4F4949887E892B88E2CA54CA4F494604EF092C08E38A586
:204C400040A4EC94D491FC92CC8E40A54CA4F4941089F092C88E3CA550A4F494A04EF89200
:204C6000CC8E48A544A4F0945897FC92CC8E44A54CA4F494788AF492CC8E40A54CA4F89406
:204C8000E04EEC92C88E48A548A4F094A096F492CC8E44A554A4F894F08BF892D08E4CA5DE
:204CA00064A4F894B84D0093E08E60A55CA4F094EC951C93F08E70A568A4F4944C8D1C93F2
:204CC000FC8E74A564A4F894F44D1C93048F7CA55CA4F09464952093048F78A560A4F4948D
:204CE000B4821C93008F70A564A4F494DC4D1493F88E70A55CA4EC94C0941493F48E68A526
:204D000064A4F894F0831093EC8E64A564A4F494184E0893E88E64A55CA4EC949C9A089305
:204D2000E48E5CA564A4F49444850493E08E54A560A4F494284E0093DC8E5CA554A4EC9431
:204D4000EC990493DC8E58A55CA4F4948486FC92D88E54A55CA4F494144EF892D48E58A57E
:204D600050A4F09438990093D88E58A55CA4F494E0870093D48E58A558A4F494F44D0093BB
:204D8000D88E5CA550A4EC949C980893D88E60A55CA4F894E87C0493D88E60A558A4F49488
:204DA000D84D0093D88E68A554A4EC94C8970493D08E60A55CA4F494687E0493D88E60A587
:204DC00058A4F494E44D0493D88E64A54CA4EC94909D0C93D88E60A554A4F494AC7F08932B
:204DE000D88E64A558A4F494D44D0893D88E68A550A4F094E09C1493DC8E68A558A4F894F7
:204E00000C811893E48E70A558A4F494D04D1093D88E70A54CA4F094249C1493DC8E68A5C2
:204E20005CA4F89448820C93D88E60A558A4F494D04E0893D88E68A550A4EC948C9B18931C
:204E4000E08E68A558A4F894A4831893E48E70A558A4F4947C4E1493E08E78A554A4EC94FE
:204E6000D89A2093E88E7CA560A4F89414782093EC8E80A558A4F494404E1893E88E7CA5B4
:204E800050A4F094389A2093E88E74A558A4F49444791C93E88E74A55CA4F494284E18935E
:204EA000E88E74A54CA4EC9438A01C93E48E70A558A4F8949C7A1493E48E70A554A4F49499
:204EC0002C4E0C93DC8E70A550A4EC94949F1093DC8E6CA558A4F494E07B1093E48E70A56C
:204EE00050A4F49454511093E08E70A54CA4F094E09E1893E08E68A558A4F4940C7D18939B
:204F0000E48E70A550A4F494B4501493E48E74A54CA4F094609E1C93E88E74A554A4F89424
:204F2000E0701893E88E70A550A4F49410501493E48E78A54CA4EC94749C1893E48E74A523
:204F400060A4F894E8741893E88E74A55CA4F894204B1493E08E78A554A4EC945C9F1893E4
:204F6000E88E70A560A4F89494751893E88E70A558A4F494704B1493E48E74A550A4F094EE
:204F800040A21893E48E70A55CA4F894D4741893E48E70A558A4F4941C531493E08E78A5D2
:204FA00054A4F094349E1493E08E74A560A4F89444781093E08E78A560A4F0941850089370
:204FC000D88E74A558A4EC94509D0C93DC8E70A560A4F894706B0893DC8E74A558A4F094C2
:204FE0009C4F0493DC8E70A550A4EC94909C0C93DC8E68A55CA4F894986C0C93D88E6CA554
:2050000058A4F494944E0893DC8E74A550A4F094B0A21093DC8E70A55CA4F494606E109327
:20502000DC8E70A554A4F0942C4E0893DC8E74A54CA4EC9430A30C93DC8E6CA558A4F894F8
:20504000D06F0893DC8E6CA554A4F494F84D0893D48E6CA54CA4EC9460A21093DC8E64A5A0
:2050600058A4FC9468700893D88E68A550A4F09450560893D88E68A550A4F094D8A61093F9
:20508000DC8E64A55CA4F8948C6D0C93D88E64A554A4F09498580493D88E68A550A4F0941C
:2050A00080A50C93D88E68A560A4F894BC640C93DC8E6CA554A4F494D0570493D88E70A536
:2050C00054A4EC9410A50C93DC8E6CA564A4F894F8640893D88E68A55CA4F0946057FC92C2
:2050E000CC8E60A558A4F09428AB0093CC8E5CA560A4F894A466F892C88E60A558A4F09411
:205100002857F092C88E60A550A4EC946CAAFC92CC8E58A560A4F894E465F492C88E58A512
:2051200054A4F094AC5FF092C08E5CA550A4F0942CAAF492C88E58A55CA4F8946866F49210
:20514000C48E54A554A4F094205FF092C08E54A550A4F094BCA9F892CC8E50A558A4F89402
:20516000B462F892C88E54A550A4F094A85EF492C48E54A550A4F09498A9F892C88E54A55F
:205180005CA4F8940863F892C48E58A554A4F494385EF092C48E58A554A4F094C4ADFC92DD
:2051A000C48E58A564A4F894BC63F892C48E5CA558A4F094605DF092C48E60A554A4F0947E
:2051C0007CADFC92CC8E5CA564A4FC945463F492C88E5CA558A4F4948C66F092C88E5CA542
:2051E00058A4EC946CAD0093C88E54A564A4F8945C63F892CC8E58A554A4F094E465F092BD
:20520000C88E54A550A4F094C8AD0093C88E4CA55CA4F8945C60F892C88E50A550A4F094E3
:205220003465F092C88E54A554A4EC9400ADFC92CC8E48A560A4F8945860F892C88E4CA5F1
:2052400050A4F0942465F492C48E4CA554A4F094B8AEFC92C88E4CA55CA4F8948C60F892CB
:20526000C88E50A554A4F494E464F492C48E50A554A4F094C0AEFC92C88E4CA55CA4F89403
:20528000B460F892C88E4CA554A4F0948464F092C48E4CA554A4F094B0AEFC92CC8E48A551
:2052A00060A4F894E060F892C88E50A554A4F094806EF492C88E50A554A4F094A4AEFC92B2
:2052C000C88E4CA55CA4F8940461F492C88E50A554A4F094386EF492C48E4CA554A4F0945E
:2052E00094AE0093C88E48A560A4F894BC5DF492C48E50A554A4F094E86DF492C88E50A57E
:2053000054A4EC949CAE0093C88E4CA560A4FC94C85DF492C88E4CA554A4F094A46DF49258
:20532000C88E50A554A4F09468AE0093C88E48A55CA4F894A05EF492C88E50A554A4F094E3
:20534000606DF492C88E50A558A4F09478AE0093C88E48A55CA4F894685EF892C88E4CA510
:2053600054A4F4947078F892C88E4CA554A4F49474AEFC92C88E4CA55CA4FC94485FF892BC
:20538000C88E4CA550A4F0942879F892C88E48A554A4F494C0AEFC92CC8E44A55CA4F89495
:2053A000AC5DF492C88E48A554A4EC94047BF492C88E48A550A4F09490AEFC92C88E44A5D8
:2053C0005CA4F894405DF092C48E44A550A4F094507AF092C48E44A554A4EC9418ABFC921F
:2053E000C48E40A55CA4F8942C5CF092C08E44A550A4EC94A878F092C08E44A554A4F094E0
:20540000D8A9F892C48E40A55CA4F894F459F092C08E44A550A4EC94AC82F892C48E44A551
:2054200054A4F094CCAA0093C88E44A558A4F894045DF492C08E48A550A4F0942085F89257
:20544000C48E48A550A4F09410ABFC92C48E48A55CA4F8940059F092C08E48A550A4EC94F7
:205460005C84F492C48E48A554A4F094D4AAF492C48E44A55CA4F894EC58EC92C08E40A54B
:2054800054A4F0947484E892BC8E40A554A4F09478A3F092BC8E3CA560A4F8944859E49204
:2054A000B88E44A550A4F094B884EC92B88E40A558A4F49494A3F892C08E3CA55CA4F89460
:2054C0003859EC92C08E44A554A4F0946484F092C08E44A558A4F094A8A3FC92C48E40A5D9
:2054E0005CA4F8944C59F092C08E48A550A4F094D889F492C08E44A558A4F494C4A3F892B3
:20550000C48E40A55CA4F8945059EC92C08E48A550A4F094B489F492C48E44A558A4F4946C
:20552000B8A3F892C48E40A55CA4F894BC55F092C08E48A54CA4F494A089F892C08E44A593
:2055400058A4F494C8A3F892C08E40A558A4FC94C855F092C08E44A550A4F094A089F49216
:20556000C08E44A554A4F494909AF492C08E40A558A4F894E855EC92C08E44A550A4F0949F
:205580009889F092C48E40A558A4F494B49AF492C08E40A560A4F894FC55F092C08E40A510
:2055A00050A4F094C88EF492C48E44A558A4F494B49AF892C48E40A55CA4F894E455EC9286
:2055C000C48E44A550A4F094C48EF892C48E48A558A4F494C49AF892C48E3CA560A4F894CE
:2055E0008452F092C48E44A550A4F094C48EF892C48E48A558A4F494D09AFC92C48E44A5CE
:2056000058A4F8949052F092C48E48A550A4F094C48EF892C48E48A558A4F4948090FC92AA
:20562000C88E44A558A4F8948852F092C48E48A550A4F494B08EFC92C48E48A558A4F494FD
:20564000A090F892C88E44A55CA4F4949452F492C48E48A550A4F0945894FC92C88E48A5E9
:2056600054A4F494AC90FC92C48E44A55CA4F894A052F492C48E48A550A4F0944894FC9280
:20568000C88E48A558A4F894B090F892C88E48A55CA4F4947C50F492C88E4CA550A4EC949D
:2056A0004C94FC92CC8E48A558A4F494CC90FC92CC8E48A558A4F4946050F492C88E48A583
:2056C00050A4F0942494FC92CC8E48A558A4F4946885F892C88E44A558A4F4947C50F492B5
:2056E000C48E44A550A4F0943094F892C88E44A558A4F4946885F892C48E44A558A4F894AC
:205700006C50F492C88E48A550A4F09420940093C88E48A558A4F4949485FC92CC8E48A590
:2057200058A4F8947C50F892C88E4CA550A4F094149A0093C88E48A55CA4F8949885F89215
:20574000C88E44A558A4F8947C50F492C88E4CA550A4F094049A0093C88E48A55CA4F49475
:20576000D085F892C88E40A558A4F4945450F492C48E44A550A4EC94F499FC92C48E40A560
:2057800058A4F494E885F492C48E40A558A4F4945C50F092C48E44A550A4EC94D499F89203
:2057A000C48E40A558A4F4946479F492C08E40A554A4F4945050F092C08E44A550A4F09447
:2057C000C499F892C48E40A558A4F894A079F092C08E40A558A4F4944450E892BC8E40A594
:2057E00050A4F094C09FF492C08E3CA558A4F494D879EC92BC8E3CA550A4F4943050E89229
:20580000BC8E40A550A4F094AC9FF492BC8E3CA558A4F494E479F092C08E3CA554A4F494D3
:20582000FC53F092C08E40A54CA4EC94909FF892C08E40A558A4F494187AF092C08E40A53D
:2058400054A4F094D453F492BC8E44A54CA4F094609FF892C08E40A558A4F8944C6CEC92FE
:20586000C08E40A558A4F494BC53F092C08E44A550A4F0946C9FFC92C08E3CA558A4F894E1
:20588000946CF092C48E3CA554A4F494AC53F492C08E44A550A4F0947CA5FC92C48E3CA5BD
:2058A00058A4F894B86CF092C08E40A550A4F4949453F092BC8E44A550A4EC9468A5F49268
:2058C000C08E3CA558A4F494046DEC92C08E3CA554A4F094345BEC92C08E40A54CA4F094C7
:2058E0004CA5F492C08E3CA558A4F8943C6DEC92C08E3CA550A4F494F85AEC92BC8E40A5A9
:2059000050A4EC9414A5F892C08E40A558A4F8946065EC92BC8E3CA550A4F494D05AEC9283
:20592000BC8E40A550A4F094E0A4F092BC8E38A55CA4F8946865E892BC8E40A550A4F09419
:20594000AC5AEC92BC8E3CA54CA4F094D0A4F092BC8E34A558A4F8947865E492B88E38A50D
:2059600050A4F094685AE492B48E38A550A4F09450AAE492B48E30A558A4F8948C65E4926A
:20598000B48E34A550A4F494445AE892B48E38A54CA4F09440AAF092BC8E34A558A4F894AE
:2059A000A065EC92BC8E38A550A4F0942063EC92BC8E40A54CA4EC941CAAF492BC8E38A5B2
:2059C0005CA4F894B865EC92BC8E3CA550A4F494F462EC92C08E3CA554A4F0940CAAF4923E
:2059E000C08E38A55CA4F894F062F092C08E3CA550A4F494B462F092BC8E40A54CA4F09436
:205A0000F4A9F892C08E34A55CA4F8940463F092C08E40A550A4F0945862F092BC8E40A5AD
:205A200050A4F09430ADF492C08E38A55CA4F8943063F092BC8E3CA550A4F094F861F09241
:205A4000C08E40A550A4F49410ADF492BC8E38A55CA4F8945063F092C08E3CA550A4F094C5
:205A6000B06BF092BC8E3CA554A4EC94FCACF492C08E38A55CA4F8946463F092C08E3CA589
:205A800054A4F494386BF492C08E40A550A4F494E8ACF492C08E3CA55CA4F8948860F0926F
:205AA000BC8E3CA554A4F094E06AF492BC8E3CA550A4F094DCACF492C48E3CA558A4F89403
:205AC0009460F092C08E3CA550A4F094846AF492C08E40A550A4F094DCADF492C48E3CA548
:205AE00058A4FC94C060F092C08E40A550A4F094186AF492C08E40A554A4F494D0ADF8920B
:205B0000C48E38A55CA4FC94D060F492C08E40A550A4F094A474F492C08E40A550A4F0941C
:205B2000D0ADF892C08E38A558A4FC940061F092C48E44A550A4F0942074F492C08E40A5C4
:205B400054A4F094E0ADF492C08E3CA55CA4FC940861F492C48E44A550A4F094A473F492B8
:205B6000C08E40A554A4F094F0ADF892C08E3CA558A4F894085EF092C08E40A54CA4F49405
:205B80004873F892C08E40A550A4F494C0ADF892C48E3CA55CA4F894385EF492C48E40A508
:205BA00050A4F094D472F892C48E40A550A4F49408ADF892C48E40A55CA4F894545EF092B4
:205BC000C48E44A550A4F0946872F492C08E40A550A4F4941CADF892C48E3CA55CA4F894F1
:205BE000745EF492C48E40A550A4F094DC7DF492C48E44A554A4F49444ADF892C48E3CA556
:205C00005CA4F8949C5EF492C48E44A550A4F094507DF492C48E40A554A4F49458ADF8922C
:205C2000C48E40A558A4F894785BF492C48E44A550A4F094CC7CF492C08E40A554A4F49418
:205C400058ADF492C48E3CA558A4F8949C5BF492C48E40A54CA4F494687CF892C08E44A52D
:205C600054A4F4945CA9F892C48E3CA558A4F894C45BF492C08E40A550A4F094E07BF49229
:205C8000C48E40A550A4F494B4A9F892C48E40A55CA4F894E05BF092C48E40A550A4F0943B
:205CA000D085F492C08E40A554A4F494F0A9F892C48E40A558A4F894085CF492C48E44A54F
:205CC00050A4F494A085F492C48E40A554A4F4941CAAFC92C48E3CA55CA4F894C858F4922D
:205CE000C88E44A550A4F0947485F892C48E40A554A4F4944CAAFC92C88E3CA558A4F89470
:205D0000DC58F892C48E40A54CA4F0942C85F492C48E3CA554A4F494A4A2F892C48E38A531
:205D200058A4F8941059F892C88E3CA54CA4F094F884F492C48E3CA550A4F89404A3FC9253
:205D4000C88E38A558A4FC941859F892C48E44A54CA4F094F489F492C48E40A550A4F49424
:205D600040A30093C48E3CA558A4F8942459F492C08E40A54CA4F094CC89F892C08E3CA53A
:205D800054A4F89480A30093C88E3CA554A4F8943C59F892C48E44A550A4F094C089F89269
:205DA000C48E40A554A4F494C8A3F492C48E3CA554A4F894BC55F492C08E40A550A4F09442
:205DC000A489F492C08E40A554A4F89414A4F892C08E3CA558A4F894E455F492C08E44A56A
:205DE0004CA4F0945889F492C08E3CA558A4F494049BFC92C48E3CA558A4F4941456F8923D
:205E0000C48E40A550A4F0944089F892C88E40A554A4F494609B0093C48E3CA558A4F8947C
:205E20002456FC92C88E44A550A4F0943C8EF892C48E40A554A4F494A09BFC92C88E40A594
:205E400058A4FC945856FC92C88E44A550A4F0940C8EFC92C88E40A554A4F494E89B0093CA
:205E6000C88E40A558A4F8940053F892C48E44A54CA4F094148EFC92C88E44A554A4F494E4
:205E8000289C0093C88E40A554A4F8941853F892C48E44A550A4F094F88DF492C88E44A5FA
:205EA00054A4F4943492FC92C88E40A558A4F4942453F892C48E44A54CA4F094E48DF892A4
:205EC000C88E44A558A4F4947892FC92C88E40A554A4F4942C53F492C48E44A54CA4F094F8
:205EE0005093FC92C88E44A558A4F494D092FC92C88E40A558A4F8944853F492C48E44A55F
:205F000050A4F0941893F892C88E40A554A4F4941C93FC92C88E3CA554A4F8940451F49246
:205F2000C48E44A550A4F094F892FC92C88E40A554A4F49474930093C88E40A554A4F49486
:205F40003451F892C88E44A550A4EC94C492F892C88E40A558A4F494B488FC92C88E40A5DB
:205F600054A4F4945051F492C48E40A54CA4F0949492FC92C88E44A558A4F4943889FC9209
:205F8000C88E40A558A4F4947851F492C88E44A54CA4F09414980093C88E44A554A4F49442
:205FA000A489FC92C88E40A554A4F4946051F492C48E44A548A4F094A097FC92C88E40A589
:205FC00058A4F494048A0093C88E40A558A4F8945851F492C48E44A54CA4F0944497FC9212
:205FE000C88E40A554A4F494708AFC92C88E40A554A4F494EC4FF492C48E44A54CA4F4942F
:20600000DC96FC92C88E40A554A4F894E08A0093C48E44A554A4F894A44FF492C48E44A551
:2060200050A4F09444960093C88E44A558A4F894447F0093C88E40A554A4F494AC4FF8921E
:20604000C88E48A54CA4EC9444960093C88E44A558A4F894A47F0493CC8E44A554A4F494DC
:20606000704FF892C88E48A54CA4F094CC9B0493C88E44A558A4F49418800493C88E44A5F1
:2060800054A4F894644FF892C88E48A54CA4F094809B0493CC8E44A558A4F8949080049364
:2060A000CC8E44A558A4F4947050F892C88E48A54CA4EC94489B0493CC8E44A554A4F494DF
:2060C00008810493C88E48A554A4F4944C50F892C88E48A54CA4F094089B0493CC8E44A583
:2060E00058A4F4944C740093CC8E44A554A4F4942450FC92CC8E44A54CA4F094C49A049358
:20610000D08E44A558A4F494AC740093CC8E44A554A4F494F84FF892CC8E48A54CA4EC94B6
:20612000CCA00093C88E40A558A4F8941475FC92C88E44A554A4F494E84FF892C88E48A5C3
:2061400050A4EC94E0A00493CC8E48A558A4F89474750093CC8E44A554A4F8943855F8928B
:20616000C88E48A54CA4EC94A4A0FC92C88E40A554A4F894E0750093C88E44A550A4F0943C
:206180002055F892C88E48A548A4F0949CA00493CC8E44A558A4F894D8680093CC8E44A599
:2061A00054A4F094FC54FC92CC8E4CA54CA4F09474A00493CC8E48A558A4F894F868009359
:2061C000CC8E44A550A4F494B854F892C88E48A54CA4EC94A8A60093CC8E40A558A4F8940F
:2061E0004469F492C48E40A550A4F4947854EC92C08E3CA550A4EC9478A6F892C08E3CA5F5
:2062000058A4F4948869F092BC8E34A554A4F4944054EC92BC8E3CA54CA4F09460A6F892A3
:20622000C08E3CA558A4F894C069F092C08E3CA550A4F494885CEC92BC8E3CA550A4F0944C
:2062400048A6F492C08E38A558A4F894E469EC92BC8E3CA550A4F094505CE892BC8E38A55C
:206260004CA4F09418A6F092BC8E34A558A4F8941C65EC92BC8E38A550A4F094305CE8921B
:20628000BC8E38A54CA4F09408A6F892C08E38A558A4F8942C65F092C08E3CA550A4F494BA
:2062A000205CF092C08E3CA550A4F09470ABFC92C48E3CA558A4F8943465F092C48E3CA587
:2062C00050A4F494F05BF492C48E40A550A4F09470ABFC92C48E40A558A4F894CC64F492A4
:2062E000C48E40A550A4F0944065F892C48E40A54CA4F09480AC0093C88E40A558A4F89493
:206300003C62F892C48E40A550A4F0948C64F892C48E44A54CA4F0948CAD0493CC8E40A56E
:206320005CA4F894C45EF892C88E40A550A4F0946061F892C48E40A54CA4F094C0AC049379
:20634000C88E40A558A4F894845E0893C88E40A54CA4F094A0644C93E08E5CA54CA4F09488
:206360006CAE7893FC8E78A55CA4FC94645D8493148F94A550A4F09438638493148FA0A5FB
:2063800050A4F09478AF8C93208FA4A55CA4F894985E8093208FA8A550A4F094446C849377
:2063A000148FA8A550A4F094F4AE8C931C8FA8A55CA4F894485F8093188FA8A550A4F0940A
:2063C000B86E9493188FACA550A4F09480ADA493208FB0A55CA4FC94785F94931C8FB4A506
:2063E00050A4F094046FA093148FB0A554A4F094ACAEB0931C8FB0A55CA4FC943C5B9C9318
:20640000248FBCA550A4F094986E88931C8FB4A554A4F094D0AE8093208FACA560A4FC942A
:20642000E45B6093188FACA554A4F09460666493148FA4A558A4F494C4AF7093108F9CA533
:2064400064A4FC94A45C5C93108FA0A550A4F094106654930C8FA0A558A4F094D4AF549332
:206460000C8F94A564A4FC945C5C4C93088F94A554A4F09488703493088F94A554A4F494BE
:20648000F0AF3093048F8CA560A4FC94B85C3493008F8CA550A4F094C4703893088F94A560
:2064A00058A4F094B8AF3C93008F8CA564A4FC94C4574C93008F8CA554A4F09464705093E1
:2064C000008F90A558A4F094ECAF4893048F88A564A4FC94D4585493FC8E88A554A4F09464
:2064E000C06E5893008F90A558A4F4943CAA78930C8F94A564A4FC9408578493108FA0A584
:2065000054A4F09470729093148FA4A558A4F49440AA9493208FA8A560A4FC9478589C93EA
:20652000188FACA554A4F0948879A893208FB0A558A4F49410ABC493308FB8A560A4FC9461
:20654000E058C893308FC0A550A4EC94B878D893348FC4A558A4F09428ABD893388FC8A557
:2065600064A400951054E0933C8FD0A554A4F094AC78EC933C8FCCA55CA4F4943CABFC930E
:20658000488FD4A564A4FC9418542494508FE4A554A4F09424792C94508FE8A55CA4F494BA
:2065A00090A22094508FE0A564A4F8940C543494408FDCA558A4F094A87830943C8FD8A5D9
:2065C0005CA4F494E4A12494388FCCA564A4F894C8534494348FD0A558A4F0944C7F3094F0
:2065E000308FC8A560A4F494D0A228942C8FC4A56CA4F8945C534094288FC4A558A4F094D2
:20660000107F4094288FC4A560A4F494E8A24094288FC0A56CA4FC941C4FAC943C8FDCA55A
:206620005CA4F094447ED894508FF4A564A4F49434A3DC94548FF0A56CA4FC94604FF89406
:20664000508FF4A564A4EC94887D3495648F08A670A4F494389A4495688F08A678A4FC9433
:206660006C4F1095648F0CA670A4F094787D0C95608F00A67CA4F494589A2895588FF8A577
:2066800088A400958C4FAC94B08E54A564A4EC94547D1895B48E50A56CA4F494809A6895FB
:2066A000C88E4CA56CA4FC948C4F8495DC8E4CA55CA4F094D4836094E88E4CA564A4F494DE
:2066C000A09AF893E48E48A56CA4F894984FF093E48E48A554A4F094B483F093EC8E4CA590
:2066E00064A4F494A09A5494F48E4CA564A4F894F8499894F88E48A558A4F094C483C094E6
:20670000088F4CA560A4F4949C9A1C95148F44A564A4F894F4494095188F48A558A4EC943C
:20672000B08348952C8F44A564A4F4945890BC954C8F48A564A4FC94104AE495648F4CA5C5
:2067400058A4EC949483DC95788F44A564A4F49440900096808F48A568A4F894144A309697
:206760007C8F4CA558A4F094048B5096688F48A564A4F49488907496608F44A568A4FC941E
:20678000384AA0965C8F4CA55CA4F0948C8AE096348F48A568A4F49498903C96188F44A587
:2067A00068A4F89428468895248F4CA55CA4EC94908A0C951C8F44A568A4F894AC90D89403
:2067C0004C8F40A568A4F8943446DC94588F4CA55CA4EC94848A0895588F48A568A4F4940C
:2067E0004C855C95888F48A568A4F89430467C95808F4CA558A4EC94788AD895848F40A5D1
:2068000064A4F49438855C96C08F44A568A4F4943046B895BC8F48A558A4F0947C92C89587
:20682000D48F44A560A4F4943885DC95F08F3CA564A4F8943046A895FC8F44A554A4EC94BF
:206840009092C495089040A560A4F4943885E09530903CA560A4F894C845E8955C9040A5F6
:2068600054A4EC94A092E495709040A560A4F8941C85B09588903CA560A4F494C84568950B
:20688000A49040A554A4EC9498923495A49048A564A4F4947C78F494B0904CA560A4F4948A
:2068A000BC4558949C9054A554A4EC94A4921092449058A560A4F8946878CC90349060A510
:2068C0005CA4F894C045FC8F449064A554A4EC94B892AC8FB090A8A560A4F4944878848FD6
:2068E000E490C8A558A4F894D445708F24910CA650A4EC94B89B7C8F609160A660A4F89457
:206900001C78808FA09188A65CA4F494D0450C90509204A750A4EC94A89BF89010936CA7BA
