:020000040000FA
:200000007474E0883C7E009694A3788E08ABF088447EFC95A0A3748E706BE0883C7E0496A9
:2000200094A3748E2071E0883C7E009694A3788E48AAF088447EFC95A4A3788ECC6CE08857
:20004000407E009694A3788E0C6EE488407E009690A3788E8CA9F488447EF895A0A3748E57
:20006000AC6DE088407E009694A3788E8875E0883C7E009694A3788EA4A8F088447EFC9565
:20008000A0A3748E2C6EE4883C7E009694A3788E6C72E488387EFC9590A3788E80A7F0881F
:2000A000447EFC95A0A3788E006CE4883C7E049694A3788E506FE0883C7E009690A3788E8B
:2000C0009CA6F088447EFC95A0A3748E106DE0883C7E009694A37C8E1C6CE088387E00961C
:2000E00090A3788E98A8F488447EF895A0A3748E1C6EE4883C7E009694A3788E6869E088BB
:200100003C7E009690A3788E5CA7F488407EFC95A0A3788EDC6EE488407E009694A3788EF8
:20012000A870E488407E009694A3788E30A6F488447E0096A0A3748E586FE888407E009630
:2001400094A3748EF06DE0883C7E009690A37C8E5CA5F488447EFC95A0A3748E406DE888E2
:200160003C7E009694A3788E0C6BE488407E009690A3788EA0A4F488447EFC95A0A3788E26
:20018000486EE8883C7E009694A3788EFC67E4883C7E04968CA3788E04A7F888447EF895DA
:2001A0009CA3788E386FE8883C7E009694A3788E7865E888387E009690A3788EB8A5F488AB
:2001C000447EFC959CA3788EFC6FE8883C7E009694A3788EB06CE8883C7E00968CA3788E0E
:2001E000D4A4F488447EFC959CA3788E5470E8883C7E009690A37C8E0C6AE4883C7E009680
:200200008CA3788EB8A3F888447EFC9598A3788E686EE8883C7E009690A3788E1C67E4887C
:200220003C7E009688A3788EA4A2F888407EFC959CA3748E5C6FEC883C7E009690A3788E1F
:200240001C64E888387E009688A3788EACA5F888407EFC9598A3788E3870EC883C7E009664
:2002600090A3788EC061E888387E009688A37C8E1CA4F888447EFC9598A3788ED470EC88A7
:20028000407E04968CA3788EEC5FE888387E049684A3788EA0A2F888407E009694A3748E4A
:2002A0001871F0883C7E00968CA3788EE065E8883C7E009684A3788E5CA1F888407E0096B5
:2002C00094A3748E8071F0883C7E00968CA3788E2463E888387E049684A3788EE89FFC8878
:2002E000407E009694A3788E3070F0883C7E00968CA3788E9460E888387E009684A3788EF3
:200300002C9EFC88447EFC9594A3788E0C71F0883C7E009688A37C8E845EE888387E0496E3
:2003200084A3788E84A1FC88407EFC9590A3788E9071F4883C7E009688A3788EF05CEC88A1
:20034000387E049680A3788ECC9FFC88407E009690A3748EA072F488407E009688A3788E99
:200360001462E888387E009680A3788E4C9EFC88447EFC9590A3748EA874F4883C7E009644
:2003800088A3788ED45FE888387E049680A3788EC89CFC88407EFC958CA3788EFC70F088C0
:2003A0003C7E009688A3788EBC5DE888387E049680A3748E209BFC88447EFC9590A3748EF7
:2003C0002072F0883C7E009688A3788E205CE888387E009680A3788EBC9EFC88407E0096FF
:2003E00090A3748E1474F4883C7E009688A3788E205BE888387E089680A3788E089D0089AD
:20040000407E00968CA3748EB076F4883C7EFC9588A3748E205FE888387E009680A3788ED9
:200420009C9BFC88407E00968CA3748EE079F488407E009688A3748E705DE8883C7E049695
:200440007CA3788E4C9AF888407E009690A3788EA472F0883C7E009688A3788EC85BEC88DE
:20046000387E009680A3788EBC98FC88407EFC9590A3788E7C75F8883C7E00968CA3788EB1
:20048000C45AE888387E04967CA3748E689C0089407EFC958CA3788ED478F888407E00962C
:2004A0008CA3748E185AE888387E009680A3788EB09AFC88407E00968CA3748E387CF8882D
:2004C0003C7E00968CA3788E045AEC88387E04967CA3788E2899FC88407EFC958CA3788E87
:2004E000E47FFC883C7E009688A3788E885BEC88347E00967CA3788EC49700893C7E00969C
:2005000088A3788E9883F888407E009688A3788E685AEC88387E00967CA3788E7496008950
:20052000407E009688A3788E707AF888407E00968CA3788EB859EC883C7E00967CA3788E49
:20054000DC94FC88407E00968CA3788EF87DF888407EFC9588A3788EA059EC88387E0496EC
:200560007CA3788E4098FC88407EFC9588A3788E6481FC88407EFC9588A3788E245AEC889F
:20058000387E00967CA3788EB496FC88407EFC9588A3788ED084FC88407EFC9588A3788E44
:2005A000145AEC88387E04967CA3748E6095FC88407E00968CA3748E0C88FC883C7EFC9587
:2005C00084A3748E5459EC88387E00967CA3788E149400893C7EFC9584A3748EE07EF888DD
:2005E000447E009684A3788E3859EC88387E04967CA3788E6892FC88407E009688A3748EFD
:200600003482FC88407EFC9584A3788EF059F088387E00967CA3788EAC95FC88447E0096D5
:2006200084A3748EAC85FC88407E009688A3788EF85AF088387E089678A3788E44940089B7
:20064000447E049680A3788E0C890089407E049684A3788E9459F088387E0C9670A3788E9C
:2006600038930089407E04967CA3748E408C0489407E089680A3748E5C59F088387E089652
:200680006CA3788E049200893C7E049678A3788E64830089407E04967CA3748EBC59F0883B
:2006A000387E08966CA3788E8490FC883C7E049674A3748EA4860089407E049678A3748EA4
:2006C000F45AF088387E0C9668A3788EB093FC88407E089670A3788EE4890089407E049661
:2006E00078A3748E305CF088387E089664A3748EAC920089407E049670A3788E508D0489DA
:20070000407E049674A3788E485DF088387E089664A3788EB09100893C7E049670A3748EB3
:200720005C900489407E049670A3788E345AF488387E089664A3788E749000893C7E049683
:200740006CA3788E30930089407E009670A3748EE05AF088387E089664A3748EF88E0089B1
:200760003C7E04966CA3788E388B0089407E009670A3788E205CF088387E049660A3788E0A
:200780004C8D0089407E04966CA3748E748E0089407E009670A3788E845DEC88387E0896ED
:2007A00060A3748E10910089407E009668A3748E70910089407E04966CA3748E8C5EF48850
:2007C000387E04965CA3788E7C900089407E049668A3788E24940489407E04966CA3788E14
:2007E000185BF088387E04965CA3788E2C8FFC88407E009664A3748EC0960489407E0496E2
:200800006CA3748EF85BF088387E08965CA3788EA48D00893C7E049664A3788E488F048924
:20082000407E00966CA3748E245DF488387E04965CA3788EF48BFC883C7E049664A3788E9D
:2008400020920089447E04966CA3748E705EF088387E04965CA3788E908F0089387E04965D
:2008600068A3788EC0940489407E04966CA3748E7C5FF488387E049658A3788EB08E0089AE
:200880003C7E049660A3788E24970489407E009668A3788E0C5CF088387E049658A3788E1D
:2008A000888DFC88407E009660A3788E74990889407E009668A3788ED05CF088347E04964F
:2008C00058A3748E088C0089407E009660A3788E04920489407E009664A3788E045EF4883F
:2008E000387E049658A3788E608AFC88407E049660A3788EA0940489447E009664A3788EB2
:20090000485FF4883C7E049658A3748E0C8EFC883C7E00965CA3788E00970489407E009678
:2009200064A3788E7C60F088387E049654A3748E348D00893C7E009660A3748E68990489E0
:20094000407EFC9568A3748E5061F4883C7E049654A3788E1C8C0089407E00965CA3748E37
:20096000C09B0489407E009664A3748EC85DF488387E049654A3788EBC8AFC883C7E00962A
:200980005CA3788E409E0489407E009660A3788E005FF488387E009654A3788E60890089F4
:2009A0003C7E00965CA3788E10970489407E009664A3748E5C60F888387E049654A3788EC8
:2009C0001C88FC883C7E00965CA3788E609904893C7E009664A3748EA461F488387E0496EA
:2009E00054A3788E648C00893C7E00965CA3748EFC9B0889447E009664A3748EBC62F4880D
:200A0000387E009650A3788E188BFC883C7E00965CA3788EA89D0889407EFC9564A3788EE3
:200A2000E85EF488387E049654A3788E8C89FC883C7E04965CA3788ED89F0889407EFC955E
:200A400064A3788E1C60F4883C7E049654A3788E6888FC883C7E00965CA3788E2499088929
:200A6000407E009660A3748E6C61F4883C7E049654A3788E6887FC883C7E00965CA3748EBF
:200A8000589B0889447E009664A3788E6C62F4883C7E049654A3788E788B00893C7E0496F2
:200AA0005CA3748EA49D0889407E009664A3788E3463F888387E049654A3748E5C8A008933
:200AC0003C7E009658A3788EBC9F0889407E009660A3748E905FF888387E049654A3788EC4
:200AE000148900893C7E00965CA3788EDCA10889447EFC9560A3748ECC60F888387E00961D
:200B000054A3788ECC87FC883C7E00965CA3788EA49A0489407E009664A3748EEC61F488BB
:200B2000387E009658A3788EB886FC883C7E009658A3748EB49C0889447E009664A3748E17
:200B4000E062F888387E009654A3788E148600893C7E04965CA3788EEC9E0889407E00969F
:200B600064A3748EA063F888387E009654A3788EF0890089407E00965CA3788E08A10C8907
:200B8000447E009664A3748E2C64F4883C7E009654A3788EB08800893C7E009658A3788E89
:200BA0000CA30889447EFC9560A3748E3061F488387E049650A3788E68870089407E00967B
:200BC00058A3788EE8A40889447E009660A3748E5062F888387E049650A3748E6486FC88B5
:200BE0003C7E009658A3748E889D0889447E009660A3748E3463F488387E049650A3788E39
:200C0000C885FC883C7E009654A3788E749F0889407E009660A3788ECC63F8883C7E0096B6
:200C200050A3748EA48900893C7E009658A3788E78A10C89407E009660A3748E7864F88855
:200C4000387E049650A3788E748800893C7E009658A3748E80A30C89447EFC9560A3788E65
:200C60007461F488387E049650A3748E44870089407EFC9558A3788E64A50C89407EFC954D
:200C800060A3748E9862F888387E049650A3748E5886FC883C7E009658A3788E149E08899A
:200CA000407EFC9560A3748E7463F4883C7E049650A3788EBC8500893C7E009658A3788E25
:200CC000C89F0C89407EFC9560A3748EEC63F488387E009650A3788E8C8900893C7E0096C6
:200CE00058A3748E9CA10889407E009660A3748E6C64F888387E009650A3788E5C880089CE
:200D0000407E009654A3788E78A30C89407E009660A3748E8061F888387E009654A3748ED3
:200D20003C8700893C7E009654A3788E34A50C89407E009660A3748EAC62F888387E049675
:200D400050A3788E748600893C7E00965CA3748ED09D0889447EFC9560A3748E6463F4882D
:200D6000387E049654A3748EEC85FC883C7E009654A3788E9C9F0889407E009660A3748EC3
:200D8000E063F4883C7E049650A3748EAC8500893C7E009658A3788E58A10C89407E00965E
:200DA00060A3708E3464F4883C7E049650A3748E988800893C7E009658A3748E10A308899B
:200DC000447EFC9564A3748EA064F488387E009650A3748E68870089387E009658A3748E35
:200DE000A0A40889447EFC9560A3748E4C62F488387E009654A3788E9C86FC88387E04965D
:200E000058A3748EE4A50889447EFC9560A3748E1463F888387E049650A3788E24860089F0
:200E20003C7E009658A3748EC49E0889407EFC9564A3708E9063F888387E049650A3788E62
:200E4000D485FC88387E009658A3788E70A00889447EFC9564A3748ED463F888387E009668
:200E600050A3788EE48800893C7E009654A3788E38A20889407EFC9560A3748E3864F48860
:200E8000387E049650A3788EC887FC88407E009658A3788EBCA30889447E009660A3748E94
:200EA000D061F488387E049650A3748EEC8600893C7E009658A3748EECA40C89407EFC9584
:200EC00060A3748E9C62F488387E009650A3748E5086FC883C7E009658A3748E949D0889E9
:200EE000407EFC9560A3748E0063F488387E009654A3748E1C86FC883C7EFC9558A3748E0C
:200F00003C9F0489447EFC9564A3748E3863F488387E049654A3788E4489FC88387EFC9511
:200F20005CA3748EC8A00889407EFC9564A3748E7C63F488387E009654A3748E3888FC887B
:200F40003C7E009658A3748E74A20889407E009664A3748E2C61F888387E009650A3788EEE
:200F60007C87FC883C7E009658A3748EC8A30889407E009664A3748E0862F488387E009612
:200F800050A3748E1887FC883C7E009658A3748E409C0889407EFC9564A3748E8862F488C1
:200FA000387E049654A3788EC886FC88387EFC955CA3788ECC9D0889447E009668A3748E67
:200FC0009062F488387E009654A3748E488600893C7EFC955CA3748E589F0889407EFC95E4
:200FE00064A3748ED462F888387E009650A3748ED08800893C7E00965CA3748EF4A008899A
:20100000407EFC9564A3748EA063F488387E009650A3748E148800893C7E009658A3708E4A
:2010200038A20889407EFC9564A3748E2061F488387E009654A3788E9887FC883C7E0096B4
:2010400058A3708E44A30489407EFC9560A3788E8461F888387E009654A3748E4C87FC88CA
:201060003C7E00965CA3748E489C0889407EFC9560A3748EC461F488387EFC9554A3788E71
:20108000F086FC883C7EFC955CA3748ED89D0889407EFC9564A3708E2462F888387E00965E
:2010A00054A3748E9C8900893C7E009658A3748E789F0C89407EFC9560A3748EEC62F48872
:2010C000387E00964CA3748EF88800893C7E009658A3748EFCA00889407EFC9560A3708E00
:2010E0005860F488387E049654A3788E908800893C7E009658A3708E1CA20C89407EFC95E3
:201100005CA3708EC060F888387E009650A3748E588800893C7E009654A3748E809A088994
:20112000407EFC955CA3748E0061F888387E009650A3788EF887FC883C7E009654A3748EED
:20114000F89B0889407EFC9560A3748E6061F888387E00964CA3788EB88A00893C7EFC957F
:2011600058A3748E8C9D0889447EFC9560A3708E3062F488387E00964CA3788EE88900891B
:201180003C7E009654A3748E509F08893C7E009660A3708E9C5FF488387E00964CA3748E81
:2011A0009C890089407E009654A3748ED8A00889407E00965CA3748EF05FF488347E0096C3
:2011C00050A3788E808900893C7EFC9554A3748ED0980889407EFC9560A3748E1C60F488FB
:2011E000387E049650A3748E1889F8883C7E009654A3748E309A0489407EFC9560A3708E99
:201200009860F088387E009650A3748E5888F8883C7EFC9554A3748E8C9B0089407EFC957A
:2012200060A3748E6861F088387E049650A3748EDC8AFC883C7E009658A3708E249D0089A6
:20124000407EFC9564A3748E9862F488387E049650A3708E688A88893C7E009658A3788E2B
:20126000A89EF889407E009658A3708E445F148A387E049640A3748E388A3C8A3C7E049608
:2012800048A3748E18A0588A407E04964CA3708E745F308A387E089640A3748EE489248AA1
:2012A0003C7E08964CA3748E4C98388A447E049654A3708ED45F288A387E0C964CA3748EC0
:2012C0002089348A387E08965CA3708EC0993C8A407E08966CA3748E8860348A387E1096C8
:2012E00064A3748EC48B408A3C7E0C9678A3748E549B488A3C7E089688A3748EB861348A36
:20130000387E109680A3748E448B308A407E0C9694A3788EB89C488A407E0C96A8A3708E57
:20132000645E3C8A347E1496A0A3748EE08A408A3C7E1096B4A3708E249E408A3C7E1096AF
:20134000C4A3748EB05E348A347E1496C0A3748E748A408A387E1096D0A3748E5496448A46
:20136000407E1096E4A3708E385F348A347E1096DCA3748EA489488A3C7E1096F0A3708E66
:20138000F0974C8A407E0C9600A4708EF05F408A347E1896F8A3708EA08C508A387E10967A
:2013A00008A4748E8499488A3C7E109618A4748EFC604C8A347E149610A4788E108C588AAC
:2013C0003C7E109620A4748E149B708A407E10962CA4708EB85D588A347E149624A4748EEF
:2013E000B08B7C8A3C7E149634A4748E749C888A3C7E149640A4748E105E808A347E18962A
:2014000034A4748E2C8B948A387E189640A4748E5894B88A387E14964CA4748E8C5EBC8A23
:20142000347E189648A4748E488AC88A407E189658A4748E1C96D08A507E149660A4748E46
:20144000545FD08A587E1C9654A4748E2889EC8A687E189660A4748EB497E88A747E1496E3
:2014600070A4748E3C60108B807E1C9664A4748EB08C348B987E189670A4748EF0983C8B41
:20148000A47E149678A4708E00612C8BAC7E1C966CA4748E7C8C548BC47E189678A4748E6B
:2014A000789A548BD07E189680A4748E245D3C8BC87E209670A4748EE08B888BE87E18962D
:2014C00078A4748E449CD08B047F1C9680A4748E905DC88B047F209670A4788E008B008CAE
:2014E000247F1C9678A4748E1C940C8C307F1C967CA4748E585EE08B247F20966CA4748E22
:20150000F0890C8C347F209670A4748EE895208C387F209674A4748E645F048C247F2496DB
:2015200068A4748E688D548C447F24966CA4748E5C977C8C507F20966CA4748E64607C8CDB
:201540003C7F28965CA4788E048DE88C547F289660A4748E2099448D647F249664A4748E3F
:20156000885C808D4C7F289654A4748E7C8C908E787F2C9658A4748EDC9A50909C7F2C96E7
:2015800058A4748E305D20929C7F2C9648A4748E948BA094C07F30964CA4748EE892549794
:2015A000DC7F309654A4748EF45D1C9AF07F389644A4748E508AD89C0880389648A4748E50
:2015C000D494349F088038964CA4748E085F4CA0CC7F3C9640A4788E288EFCA0B47F3896DB
:2015E0004CA4748E5C9690A1A47F389658A4748EE05F2CA2BC7F3C964CA4748E948D68A3AF
:20160000088038965CA4748E549870A428803C9668A4748E445C08A5348040965CA4708E15
:20162000CC8CA4A5388040966CA4748E249A10A65480409678A4748ED05C28A64480489691
:2016400070A4748EB88B54A634803C9678A4748E4C92A0A66080409688A4748EB45DECA6E8
:201660008C80509678A4748EC88A64A7A080509684A4748E1C94E8A7B0805C968CA4748E3A
:20168000D05E6CA8CC80689680A4748E9489F8A8EC806C9688A4748EE09548A9F880749657
:2016A0008CA4748EB45F7CA9088180967CA4748E208EE0A96881909684A4708EBC9714AA82
:2016C0008C81989688A4708E586048AA9481AC967CA4748E5C8DA4AAB881AC9684A4748EA6
:2016E000A899F8AAC481B49688A4748E985C54ABD081C4967CA4748E508CE4ABE481C09664
:2017000088A4748E849B60AC0C82D0968CA4708E805DECAC3482E49680A4748E048B90ADB7
:201720005882E0968CA4708E589314AE6882E49694A4708E7C5E4CAD3482E09688A4748EB7
:20174000EC8964AC1882CC969CA4708E2095A8AB0882C896A8A4748E845F2CAB2882E096B2
:20176000A4A4708E2C8EA8AB10831897B0A4748E109724ACAC833897BCA4708E506070ACDF
:201780001C845C97B0A4748E708DA4AC8C845C97BCA4708E3499A0AC04855C97C4A4708EB7
:2017A0004C5C94AC40867897B0A4708E788CC0ACD0888497B8A4748E409BDCABA08B749741
:2017C000B8A4708E585D20AA048E7097A8A4748E388BC4A84C907897B4A4708E2093A0A7DF
:2017E00048927897BCA4748E805E74A638948C97A8A4748E088AACA52896A897B4A4708E33
:20180000189528A5F897AC97B4A4748E885FB8A4C899AC97A4A4748E788EF0A4289CEC9710
:20182000A8A4748EFC9664A5C89E1C98A4A4708E3060B0A534A1249888A4748E7C8D20A6EC
:2018400094A3449888A4748EF898A0A6F4A56C9888A4748E885C14A720A8789874A4748E15
:201860006C8CA8A734AA849878A4748E049BB0A68CAB64987CA4748E605D68A444AC54981A
:2018800068A4748E448B4CA2DCAC409870A4748E309354A070AD389870A4748EA45E809E2D
:2018A00070AEA8985CA4708E108A0C9D70AFB89858A4748E0C95E89B84B0D09854A4748E62
:2018C000A45FA49AB4B1F09838A4748E24897899CCB2E89838A4748E34974498DCB3F498A0
:2018E00038A4748E68602C97E8B40C9924A4748E588D3096F0B5149924A4748E4899D89460
:20190000FCB63C9928A4708ED4602893ECB7709918A4788E388C7491E8B888991CA4748ECD
:201920008C9BBC8E48B9A09920A4708EAC5DBC8A38B9949914A4748EF48AD8855CB97C990E
:2019400018A4708EA09DE88098B9809920A4708EFC5E447F18BAE89910A4748EDC89588198
:20196000B0BA009A14A4748E8C95F08158BB209A1CA4748EE45F2C8204BC6C9A10A4788E17
:20198000F088688290BC5C9A1CA4708EA097208374BD949A2CA4708EA8608C8350BEE09A3F
:2019A00020A4748E1C8DE88314BF7C9B2CA4788EA4993084F0BF9C9C30A4748E28614C8486
:2019C000BCC0109E28A4748EDC8B708474C1A09F28A4788EBC9B848324BEF09C48A4788EB0
:2019E000C85D488200B810967CA4788EBC8AE8817CB20492B4A4788E1C9EE081BCAD00928D
:201A0000C4A4788E0C5FE08174A98893ACA4788E7089188244A534958CA4708E28968C82BF
:201A200010A0BC9574A4788E1C60FC829491CC954CA4748E98881887D082C49540A4748EC5
:201A40003098D487547BC09544A4708ED460FC87907DBC952CA4748EE88C2C88F87DB89588
:201A600034A4708E409A3C880C7EC49538A4748E38613888107ECC9524A4748EAC8B508810
:201A8000307ED09524A4748E749C5C88407ED09528A4708E105E4C88387EDC950CA4748E6D
:201AA000648A6888407EE0950CA4748EB09E7488447EDC950CA4708E4C5F68883C7EE89566
:201AC000F4A3748E588984883C7EE495F8A3748EF4968C88407EE495FCA3748E5C607C887A
:201AE000387EE895E8A3748E80889088407EE895E8A3708EEC989888447EE495ECA3708ED6
:201B0000146188883C7EE895D8A3708ED08798883C7EE495E0A3748EE49AA088447EE49580
:201B2000E8A3708E98619088387EE895D0A3748E648BA088407EE895DCA3708EF89CB088C8
:201B4000407EE895DCA3708EF8619C88387EEC95CCA3748E008AB0883C7EEC95D0A3708E3A
:201B6000109FBC88447EE895D8A3748E705FA888387EF095C8A3748EDC88B888407EEC952C
:201B8000CCA3748E08A1C088447EE895D4A3708E8060B0883C7EF095C0A3748E0C88BC889B
:201BA0003C7EE895C8A3708E9099C488447EEC95D0A3708E4861B488387EF095C0A3748ED7
:201BC0006487C488407EEC95C8A3748E7C9BD088447EEC95D0A3748ECC61BC883C7EF0954B
:201BE000BCA3748EF48AC8883C7EEC95C4A3708E789DD488407EEC95CCA3708E3862C48813
:201C0000387EF495B8A3748E9489CC88407EEC95C0A3708E8C9FD888407EEC95CCA3748EDC
:201C2000C05FC8883C7EF495B8A3748E8888D488407EEC95BCA3748E68A1E488447EEC95D1
:201C4000C4A3748E9460CC88387EF495B4A3748EB087D8883C7EF095B8A3748ED099E48833
:201C6000407EEC95C4A3708E5461D088387EF095B4A3708E3C87DC88407EF095B8A3748E5C
:201C8000E09BE488447EEC95C0A3708ED461D488387EF495B0A3748EA88ADC88407EF095BB
:201CA000B8A3748ED89DE888447EEC95C0A3748E5462D4883C7EF495ACA3748E5489DC8853
:201CC000407EF095B4A3748EE49FE488447EF095C0A3748EE05FD8883C7EF495B0A3748E96
:201CE0004888E088407EF095B4A3748EDCA1EC88447EF095BCA3748ECC60DC883C7EF495A4
:201D0000ACA3788E8C87E488407EF495B4A3748E349AEC88447EF095BCA3748E7461DC882C
:201D20003C7EF495ACA3708E1487E488407EF495B4A3748E409CEC88447EF095BCA3748E74
:201D40000062DC883C7EF895A8A3748EA886E8883C7EF495B0A3748E349EF088447EF4955E
:201D6000B8A3708E8462DC883C7EF895A8A3748E3489E888407EF495B0A3748E38A0F4880F
:201D8000447EF095B8A3748E4463DC88387EF895A8A3748E3088E8883C7EF495B0A3708E48
:201DA00030A2F088407EF495B8A3708EE860E088387EF895ACA3748E8887E8883C7EF49533
:201DC000B0A3708EC4A3F488447EF495B8A3748E8C61E0883C7EF895A8A3748E1C87E8882B
:201DE000407EF495B0A3748ED49CF488487EF095B8A3708E1862E088387EF895ACA3748E41
:201E00009086E8883C7EF495B0A3708EBC9EF488447EF095B8A3708EB462E0883C7EF8956D
:201E2000A8A3748EE488EC883C7EF495ACA3748EB4A0F888447EF495B8A3748E9C63E488FA
:201E4000387EF895A4A3788ED487EC88407EF495ACA3748E80A2F888447EF095B8A3708E49
:201E60002061E4883C7EF895A8A3748E4487F088407EF495ACA3708EF4A3F888447EF495A8
:201E8000B8A3748EC861E4883C7EF895A8A3748EC086F0883C7EF895ACA3708E749DF888D9
:201EA000447EF495B4A3708E7062E8883C7EF895A4A3748E6486F088407EF895ACA3748EB2
:201EC0008C9FFC88447EF495B0A3708E4463E8883C7EFC95A4A3748E9488F4883C7EF8952D
:201EE000ACA3748E70A1FC88447EF095B0A3708E1064E8883C7EFC95A0A3788EA087F48849
:201F0000407EF895A4A3748E3CA3FC88447EF495B0A3748EA061E888387EF895A0A3748E31
:201F2000E886F0883C7EF895A4A3748EA0A4FC88447EF095B0A3708E3062E888387EF89586
:201F4000A0A3748E9086F0883C7EF895A4A3748EC0A5FC88447EF895A8A3708EB462E88817
:201F6000387EF895A0A3708E3486F0883C7EF895A0A3748E20A0FC88447EF495ACA3748E3F
:201F80007C63E8883C7EFC959CA3788E7C85F0883C7EF895A4A3708E34A2FC88407EF495BC
:201FA000ACA3708E6464E8883C7EFC95A0A3748E7487F4883C7EF895A4A3708EFCA30089E1
:201FC000447EF495B0A3748E6C65E888387EFC95A0A3748EC486F088407EF895A8A3708E3E
:201FE00068A5FC88447EF495B4A3708EA462E8883C7EF895A0A3748E5C86F088407EF89509
:20200000A8A3748E70A6FC88447EF495B0A3708E2463E888387EFC95A0A3748EE885F088D5
:202020003C7EFC95A8A3708EDCA0FC88407EF495B4A3748EC063EC883C7EFC95A0A3748E45
:202040002885F088407EF895A8A3708EECA20089447EF495B4A3708EB464EC883C7EF8953D
:20206000A4A3748E2087F8883C7EF895A8A3708EA8A40489447EF495B0A3708EF465EC881E
:20208000387EFC95A0A3748E7086F488407EF895A8A3748E08A60089447EF495B0A3708ED7
:2020A0002063EC883C7EFC95A0A3748EF485F088407EF895A4A3748E30A70489447EF49565
:2020C000B0A3708E9063EC88387EFC95A0A3788E7885F8883C7EF895A4A3788E04A2008978
:2020E000447EF495ACA3708E3464F0883C7EF895A0A3748E9C84F888407EF895A4A3748E78
:20210000F4A30089447EF895ACA3748E1C65EC88387EFC95A0A3748E8886F8883C7EFC95A5
:20212000A0A3748E70A50089447EF895ACA3748E4866EC88387EF8959CA3748EF885F88879
:20214000407EF895A0A3748E9CA60089447EF895A8A3708EA863EC88387EFC9598A3748E89
:202160009885F0883C7EF895A0A3708EB4A70489407EF495A8A3708E0864EC883C7EFC959F
:202180009CA3748E2085F4883C7EF8959CA3748EB4A80089407EF495A8A3708E9064EC8878
:2021A000387EFC9598A3748E5084F488387EF895A0A3748E30A5FC88407EF495A8A3748ED6
:2021C0007865EC88387EFC959CA3748E3C83F4883C7EF895A0A3748E80A6FC88447EF4956A
:2021E000A8A3748EA066E8883C7EFC9598A3748EA885F4883C7EF8959CA3708EB0A7FC888C
:20220000407EF495ACA3708EC867E888387EFC9598A3748E3085F0883C7EF895A0A3748E4E
:2022200030A80089447EF495ACA3708E8064E8883C7EFC9598A3748EB084F4883C7EF895D2
:20224000A0A3748EE4A80089407EF495ACA3708E1C65EC88387EFC9598A3708EF483F48828
:202260003C7EF4959CA3708E0CA60089447EF095ACA3748E0C66F0883C7EF8959CA3748E99
:20228000EC82F4883C7EF8959CA3748E84A70489407EF895A8A3708E3467F0883C7EFC9522
:2022A00098A3748E3885F8883C7EF8959CA3708E74A80489447EF495A8A3708E4C68F088B7
:2022C000387EFC9598A3748ECC84F4883C7EFC95A0A3748E24A90489407EF495A8A3748E30
:2022E000F864F088387EFC9598A3748E4884F8883C7EF8959CA3748EC0A90889447EF4956D
:20230000A8A3708E8065F088387EFC9598A3788E8083F8883C7EF89598A3788E10A7048940
:20232000447EF895A8A3708E7466F4883C7EFC959CA3748E3C82FC883C7EF8959CA3748E59
:202340004CA80489447EF495A8A3708EB467F4883C7EFC959CA3748E9084F8883C7EF8956A
:202360009CA3708E30A90889407EF895ACA3708EC868F488387EFC9598A3788E4484F888A2
:202380003C7EFC959CA3748EF0A90C89407EFC95A8A3748E8C65F888387E049694A3748EED
:2023A000C88300893C7E009694A3748E70AA0889407E0096A0A3748E2466F488387E049626
:2023C00090A3748EE082FC883C7E009690A3748ED0AA0889407EFC95A0A3708E1C67F888BF
:2023E0003C7E049690A3708E288100893C7E009690A3708E38A90C89447EFC95A0A3748E97
:202400005468F888387E049688A3708EE47EFC883C7E009690A3748EF8A90889407EFC951B
:2024200098A3708E5C69F888387E009688A3708E9C83FC883C7EFC958CA3748EA4AA0889AB
:20244000407EFC959CA3708E2C6AF888387E049688A3748E3883FC883C7E009688A3748EA1
:20246000ECAA0889447EFC9594A3708EE066F888387E049684A3748EE881FC88407E00962D
:2024800084A3748E30AB0889407EF89594A3748ED467F8883C7E009684A3708E8C7FFC8864
:2024A0003C7E009684A3708E2CAA0889447EFC9594A3748EF068F888387E009684A3748E67
:2024C000C07CFC88387EFC9588A3748E84AA0889447EFC9594A3708EF869F4883C7E009654
:2024E00084A3708EEC82FC883C7E009688A3748EA0AA0889407EF89590A3708EC46AF88843
:202500003C7E009684A3708EE481FC883C7E009684A3748EB8AA0C89447EF8958CA3748E6D
:202520009467F8883C7E009684A3748ED47FFC88387E009680A3748EC0AA0C89447EFC950D
:2025400090A3748E7C68F4883C7E009684A3748E047DFC883C7E009680A3708E7CAA0C893C
:20256000407EFC958CA3748E8869F8883C7E009680A3748EF879FC883C7EFC9580A3748E90
:2025800098AA0C89447EF89590A3748E846AF8883C7E009680A3748E8881FC88387E009624
:2025A00084A3748E6CAA0889447EFC958CA3708E306BF888387E009680A3748EBC7FFC8880
:2025C0003C7EFC9580A3708E3CAA0889447EF8958CA3748E3868F8883C7E00967CA3748E07
:2025E0004C7DFC88387EFC957CA3748E30AA0889447EFC9588A3708E3469F8883C7EFC95D7
:202600007CA3708E507AFC88387E009680A3708E04AA0C89407EF8958CA3748E486AF888F1
:202620003C7E00967CA3708E5077F488387E00967CA3708EA8AA0C89447EF8958CA3748E1A
:20264000486BFC88387EFC9578A3748E8474FC883C7E009680A3708E5CAA0889447EF8950C
:2026600088A3748EE46BF888387EFC957CA3748E847DF888387EFC957CA3708EECA90C89E7
:20268000407EFC9588A3748E586CF8883C7E00967CA3708EC07AF888387EFC9578A3748EEF
:2026A000B8A90889407EFC9588A3748E0C6AF4883C7E009678A3748ECC77F888387E00963E
:2026C00078A3748E80A90889447EFC9588A3748E286BF8883C7E00967CA3708ED074F8885F
:2026E000387E009678A3708EB0AA0C89407EF89584A3748E086CF8883C7E009678A3748EB1
:202700002C72F888387EFC9578A3748E2CAA0889407EFC9588A3708E986CF888387E009688
:202720007CA3708E207BF888387E009678A3708EC8A90C89407EF89588A3708EE06CF888B6
:202740003C7E009678A3708E4878F8883C7E009678A3748E7CA90C89407EF89584A3708E39
:20276000C06AF8883C7EFC9578A3748E4475F888387EFC9574A3748E20A90C89407EFC9501
:2027800084A3708ECC6BF8883C7EFC9578A3748E7472F488387EFC9578A3708E84AA0C8970
:2027A000407EF89584A3708EA46CF888387E00967CA3748ED06FFC88387E009678A3708E84
:2027C000B8A90889407EF89584A3748E1C6DF888387EFC9578A3748E7878F8883C7EFC956B
:2027E00074A3708E20A90889447EFC9584A3708E686DFC883C7E009674A3748E9075F888AB
:20280000387EFC9574A3748ECCA80889447EF89584A3708E546BF8883C7EFC9574A3748E3C
:20282000C872F888387E009674A3748E94A80889407EFC9584A3748E486CF8883C7E0096B0
:2028400074A3708E0070F888387E009670A3748EECA70889447EFC9580A3708E206DF8886D
:202860003C7EFC9574A3748E846DF888387E009674A3748E40A90889447EF89584A3708E30
:20288000A06DF888387E009678A3748E646BF8883C7EFC9574A3748E70A80C89407EFC9593
:2028A00080A3708EE86DF488387E009674A3708EBC72F888387E009670A3748EE4A708899A
:2028C000407EF89580A3708E1C6EF888387E009674A3708EE86FF888387E009674A3708EE9
:2028E0008CA70C89447EFC9580A3708EDC6CF8883C7EFC9574A3748E5C6DF488387EFC95E4
:2029000070A3708ED0A60489407EF89580A3708EB86DF888387EFC9574A3708E086BF48847
:20292000387E009674A3748E3CA80889407EF89584A3708E4C6EF8883C7EFC9578A3748EAB
:202940001469F488387EFC9574A3748E60A70889407EF89584A3708E886EF8883C7EFC9555
:2029600074A3708E2070F488387EFC9570A3748ECCA60889407EF89584A3708EAC6EF888CD
:202980003C7EFC9574A3708E686DF888387EFC9570A3748E54A60889407EF89584A3708E2B
:2029A000706DF888387E009674A3748EE86AF888387E009674A3708E68A50889407EFC9535
:2029C00080A3708E406EF8883C7EFC9578A3708EA468F888387EFC9574A3708E1CA70C8904
:2029E000447EF89580A3708EC46EF8883C7E009678A3748E9C66F488387EFC9570A3748E6E
:202A00003CA60889407EF89584A3748E0C6FF8883C7E009674A3748E8C6DF888387E0096A6
:202A200070A3708EACA50889407EF89584A3708E2C6FFC883C7E009674A3748EC46AF888FD
:202A4000387E009670A3748EF8A40889447EFC9580A3748E0C6EFC883C7E009674A3748E09
:202A60004C68F488347EFC9570A3748EBCA30889407EF89580A3708EE06EFC88387E009654
:202A800078A3708E5466F488387EFC9574A3708E30A20889407EFC9580A3708E706FFC8855
:202AA0003C7E009678A3708E8464F488387E009670A3748E44A50889407EFC9584A3708EFA
:202AC000C06FFC88387E009674A3748ECC62F488387E009670A3748EB8A40889407EF8959B
:202AE00080A3748ED46FF8883C7EFC9578A3748EC068F488387EFC9574A3708EE8A308896A
:202B0000407EF89580A3708E2070F8883C7EFC9574A3748E6866F488387EFC9574A3748E2B
:202B200090A20889407EFC9580A3708E906FF8883C7EFC9578A3708E7864F088387E0096DF
:202B400074A3708EDCA00489407EF89580A3708E1070F888387EFC9578A3748EE062F088CD
:202B6000387EFC9570A3748E94A40889407EF89580A3748E4C70F888387EFC9578A3748E20
:202B80005061F488387E009670A3708EF4A30889407EFC9580A3708E5870FC88387EFC9580
:202BA00078A3748EDC66F488387EFC9570A3708E0CA30489407EF89580A3708E9C70FC88AA
:202BC0003C7E009678A3748EA064F488387EFC9570A3748EA0A10489407EF89580A3748E6E
:202BE0001C70F8883C7EFC9578A3748ED062F088347E009674A3748EB89F0489407EF89527
:202C000080A3748E7C70F888387EFC9578A3748E7861F088387EFC9570A3708EC0A3088922
:202C20003C7EF89580A3708EAC70F4883C7EFC957CA3748E3860F088387EFC9574A3748EB8
:202C400020A30089407EFC9584A3708EB070F8883C7EFC9578A3748E7065F088387EFC9518
:202C600074A3748E34A20489407EF89580A3708E0871F8883C7EFC9578A3748E4063F088F0
:202C8000387EFC9570A3748EC4A00489407EF89580A3748E4C70F8883C7EFC9578A3748ED3
:202CA0009861F088387EFC9570A3708EF49E0489407EF89584A3708E9070F8883C7EFC95F1
:202CC00078A3748E5C60F088387EFC9570A3708E209D04893C7EF89580A3708EA470F88805
:202CE000387EFC9578A3708E2C5FF088387EFC9570A3748E78A20489407EF89580A3748EFE
:202D0000C070F8883C7EFC9578A3748EE85DF088387E009674A3748E4CA10489407EF895B4
:202D200084A3708E8071FC883C7EFC9578A3708E2C62F488387E009670A3708EF09F048912
:202D4000407EFC9584A3708E3873FC88387EFC9578A3748EBC60F488347E009670A3748E77
:202D6000349E0489407EF89580A3708EB070F8883C7EFC9578A3748EBC5FF088387EFC95A6
:202D800070A3748E8C9C0489407EFC9580A3708EBC70F8883C7EFC9578A3748EBC5EF4884F
:202DA000387E009670A3748E00A20889407EF89580A3748EFC70FC883C7EFC957CA3708EB7
:202DC000985DF488347EFC9574A3748E20A10489407EF89580A3708EF871FC88407EFC9530
:202DE0007CA3708EB861F488387EFC9574A3748EAC9F04893C7EF89580A3708EF073FC889A
:202E00003C7EFC9578A3748E4460F488387EFC9574A3708ED49D0489407EFC9580A3708E60
:202E2000D870FC88387EFC9578A3748E485FF488387EFC9570A3748E0C9C0889407EF8955F
:202E400080A3708ED070FC88387EFC957CA3748E6C5EF488387EFC9574A3748E80A10C89C9
:202E6000407EFC9580A3708E247100893C7EFC957CA3708E645DF488347E009670A3748EC2
:202E8000B0A00889407EF89580A3748E447200893C7EFC9578A3708E5861F088387EFC95C6
:202EA00074A3708E6C9F0889407EFC9580A3708E5074FC883C7EFC9578A3708EF85FF48872
:202EC000387E009670A3748EA89D0489407EFC9580A3708ED870FC88387EFC9578A3748E1F
:202EE000085FF488387EFC9570A3748EE49B0889407EFC9580A3708ED0700089387EFC9503
:202F000078A3708E285EF088387E009674A3708E789A0C89407EF89580A3708E2071FC8811
:202F20003C7EF89578A3708E405DF488387EFC9574A3708E84A00889407EFC9580A3708E97
:202F40005072FC88387EFC9578A3748E085CF488387EFC9570A3748E489F0489407EFC95C8
:202F600080A3748E5C74F4883C7EFC9578A3708EE05FEC88387EFC9574A3708ECC9D00897B
:202F8000407EF89580A3748ED876F4883C7EFC9574A3748ED05EF088347EFC9570A3708E99
:202FA000089C0089407EF89580A3748EBC70F488387E009678A3748E2C5EEC88347EFC9522
:202FC00070A3748EB89A0089407EF89580A3708E087188893C7EFC9578A3708E6C5DE48971
:202FE000347E009668A3748EA8A0248A407E009678A3708E2C72388A3C7E00966CA3708E5C
:20300000645C348A387E049660A3748E7C9F3C8A3C7E009670A36C8E0074308A3C7E089619
:203020006CA3708E8C60148A387E089668A3708E2C9E388A407E049678A3708E4C76348A1F
:20304000387E089678A3748EA05F248A387E089674A3748E9C9C308A3C7E04968CA3708E72
:20306000C070408A387E0C9690A3708EE85E3C8A347E08968CA3708E589B4C8A3C7E049627
:20308000A4A3708ECC704C8A387E0896A4A3708E2C5E388A347E0C96A0A3748E64A1588A74
:2030A000407E0896BCA3748E8C71488A3C7E0896B8A3708E3C5D3C8A347E1096C0A3708EBB
:2030C00030A0488A3C7E0C96D8A3708E18734C8A387E1096D8A3708EA461388A347E109624
:2030E000D8A3708ED89E548A407E0C96F0A3748EF074508A387E1096ECA3748EA4603C8A19
:20310000347E1096F0A3708E849D5C8A387E0C9608A4708E8470608A387E109608A4708ED9
:20312000CC5F508A347E109604A4748E309C4C8A3C7E109620A4708E7870688A387E10968E
:203140001CA4708EF85E708A347E109618A4708E4C9B708A3C7E109630A4708ED870748AF6
:203160003C7E14962CA4748E0C5E7C8A387E14962CA4708E40A1808A407E109640A4708E4A
:20318000BC71848A447E149640A4708ED85CB08A547E14963CA4708EFC9FC48A707E109661
:2031A0004CA4708E1073D48A8C7E14964CA4748E5062D48A947E14964CA4748E8C9EEC8A3C
:2031C000A87E10965CA4748E5474E88AB47E189658A4748E9861E88AB07E189654A4708ECC
:2031E0006C9DF08AB87E14966CA4708EF06F308BD07E189668A4708E74603C8BCC7E1896AB
:2032000060A4708EC09C588BDC7E149678A4708E4470488BD07E18966CA4708E3C5F608B38
:20322000E07E1C9664A4708E88A26C8BE87E189678A4708ED0705C8BE47E189670A4708EE0
:20324000F45D908BF47E1C9668A4748E5CA1E88B187F189678A4708E8471EC8B207F1C9644
:203260006CA4708E7864F88B287F249664A4708E3CA0F88B1C7F1C9674A4708E34720C8C7A
:20328000307F209664A4708EAC63288C347F209660A4748E5C9F348C3C7F20966CA4708E57
:2032A000706F488C407F249660A4708E94625C8C487F249658A4748ED49E7C8C4C7F249684
:2032C00060A4708EAC6F908C3C7F249654A4748E5061DC8C507F24964CA4748E70A4308DE1
:2032E000607F249658A4708E4870848D6C7F289650A4708E2860548E847F2C9644A4748EBE
:2033000084A32090C07F289650A4708ED470F091B87F309644A4748E9C674494D47F2C964B
:2033200038A4708E9CA21C9704802C9648A4708E3071EC99008034963CA4708EE466949CCA
:203340001080389634A4708EFCA1209F2480389644A4708E8C6E44A0F87F3C963CA4708E80
:20336000D065E4A0CC7F3C963CA4748E8CA1A0A1CC7F38964CA4708EF86E3CA2D07F4096B7
:203380004CA4708E886448A30C8040964CA4708E1CA168A440803C9660A4708E846F2CA5F7
:2033A0005C8044965CA4748E6463A4A5408044965CA4708EC0A528A65880409674A4708EB6
:2033C000287070A664804C966CA4748E7C6298A670804C966CA4708EFCA404A79C8050961E
:2033E00080A4708E8C7060A7C080609674A4708EFC6ABCA7B880609674A4708E6CA450A847
:20340000D480689688A46C8E8870E8A800817C967CA4708E046A58A904817C9678A4708EDB
:2034200020A4C8A904817C9684A4748E106E10AA20818C9680A4708EEC686CAA8081A096D8
:2034400078A4748ED0A3C0AAB481AC9684A4708E8C6EFCAAD481C4967CA4748EC46754AB39
:20346000E081CC9678A4708E0CA7BCABE881CC9688A4708E106F14ACF481D4967CA4708E24
:20348000B86698AC0C82E49678A4708E60A638AD3482E4968CA4708E486FB8AD4C82F096EF
:2034A00080A4708E886F58AE7082009784A4708E1CA6F4AE8082F89690A4708E2C6F20AEAF
:2034C0003C82EC968CA4708E946E34AD2882E89690A4748EFCA588AC2082DC96ACA4708E06
:2034E000C86CFCAB3882F096A8A4748E606D48AC28834097A8A4708E20A6D0ACC083549766
:20350000B8A46C8E486D08AD0C846897B4A4708E2C6C1CAD90847897B0A4708E20A928AD92
:2035200068858097C0A4708EDC6D28AD2C879897B4A4708E7C6B48AD008A9497B0A4748EE8
:20354000ACA870ACF48C7C97BCA4708E286EACAA488F8C97B0A4708E307544A950918C973C
:20356000B0A4708E8CA8F4A74C938497BCA4708E386EB8A62895A497B0A4708E7474C0A537
:20358000F496AC97ACA4748EB4A81CA5C898B497BCA4708EF86DA4A4909ACC97A4A4708E66
:2035A0008073D0A4089D04989CA4708EA8A830A5A49F2498A0A4708EE06B74A5FCA13098F6
:2035C00088A4708E8872D4A560A4509878A4708E84A854A6ACA6649884A4748E806CB8A660
:2035E000D4A8849874A4748EA8714CA7DCAA84986CA4748E18AA54A62CAC6C9874A4748EA7
:20360000C86C14A4D8AC589868A4708E247104A25CAD3C9868A4708EE4A91CA0FCAD449850
:2036200070A4708EB06C5C9EF4AEA4985CA4708E2C7BE89CE0AFB89850A4708E00AAE09B65
:20364000F8B0C89858A4748E746CAC9A18B2E89844A4708E247A849934B3F89838A4708E02
:203660004CAA609848B4F09844A4708E086A349758B50C992CA4708E6079309660B62499C3
:2036800028A4708E80AA009564B7409930A4748E706A5C9360B8749920A4708ED078A091AE
:2036A00050B99C9920A4708E6CAA108FA0B9889928A4708ECC6A148B88B984991CA4708E20
:2036C00078783C86A0B9949920A4748ED4AA3081D0B980992CA4708EBC6A147F5CBAEC99F9
:2036E0001CA4748E2082388114BB449A1CA4708E2CABF481D0BB609A2CA4708E606A2C822B
:2037000064BC4C9A20A4748E68816C8208BD6C9A28A4708E78AB2C83F8BDAC9A3CA4708EC6
:203720000C689883BCBEE89A30A4708EA480F08398BFD09B38A4708E88AB3C8480C0089D21
:2037400044A4748EA068588438C15C9E34A4788E28807C84ECC1EC9F30A4748E7CA89083DD
:20376000A0BEC49C54A4788EF468648264B8C49584A47C8EDC7FF881E4B2F891B4A4788E53
:20378000B8A8F88124AE2892C4A4748EB8680482E8A9E4939CA4748E90844482D4A5509532
:2037A00084A4748E24A9CC8294A0C49574A4708E386830831491CC9544A4708E2884788737
:2037C000A486C89538A4748EC0A924887479C89540A4708E14683C88D87CC49528A4748E88
:2037E000B8835C88087EBC952CA4708E38AA7488347EC49534A4708EB0656C88347ECC952A
:2038000024A4748EA4837888407ED49520A4748E48AA8888487ED89528A4748ED0657C888E
:20382000407EE49510A4708EB4838C88447EE4950CA4708EA8A498884C7EEC9510A4708E02
:20384000B8658C88407EF095F4A3748EF0839C88407EF095F8A3748E3CA5AC88487EF49580
:20386000FCA3708E78659888407EF095E8A3748E2887A488447EF495E8A3708E8CA5B488C2
:20388000487EF495F0A3708E6C65A088407EF895E0A3748E7086A888407EF495E0A3748E8D
:2038A000CCA5B488487EF095ECA3708ECC62A488407EF895D8A3748E2C86B088407EF49530
:2038C000E0A3748EC4A5B888487EF095E8A3708EF462A888407EF895D8A3748E3C86B4889A
:2038E000407EF495DCA3748E8C9DC088487EF095E4A3748EAC62B4883C7EF895D8A3748EAD
:203900007486BC88407EF495D8A3708EEC9DC888487EF495E0A3748E5062B488407EF895C3
:20392000D4A3748E348AC488407EF495D4A3708E5C9EC888487EF095E0A3708E2862BC8864
:203940003C7EF895D0A3748EC889C888447EF495D8A3748EE89ED088487EF495E0A3708E94
:20396000545FC0883C7EF895CCA3748EC089CC88407EF495D4A3748E809FD488447EF8956D
:20398000D8A3748EA05FC488407EFC95CCA3748E088AD088407EF895D0A3748E0896D488FB
:2039A000447EF495D8A3748E485FC888407EF895C8A3748E2C8AD088407EF895CCA3748EC6
:2039C0002896D888447EF895D4A3708EE05EC8883C7EFC95C8A3748E388ED488447EF8954E
:2039E000D0A3708E6496E088447EF895D8A3708EE45ED088407EFC95C4A3748E988DDC8851
:203A0000447EF895D0A3748E7896E088487EF495D4A3748E205FCC883C7EF895C4A3748E21
:203A2000548DDC88407EF495CCA3708E9C96E488447EF895CCA3708E845CD0883C7EFC95B0
:203A4000C0A3748E7C8DDC88447EF895C8A3708EA896E488447EF895CCA3748E345CD48886
:203A60003C7E0096C0A3708ECC8DDC88407EFC95C4A3748E888CE488407EF895CCA3708EE8
:203A8000C05BD4883C7EFC95C0A3748E208EE488447EF895C8A3748EE48CE488407EF89502
:203AA000CCA3708EBC5BD4883C7E0096BCA3748E4092E488407EFC95C8A3708E588DE4882E
:203AC000447EFC95CCA3708E205CD8883C7E0096BCA3748E0892E488447EFC95C8A3708ED7
:203AE0009C8DE888407EFC95CCA3748E805AD888387E0096BCA3748E1492E888407EFC9521
:203B0000C8A3748EC48DE888407EF895C8A3708E1C5ADC883C7E0096BCA3748E3892E888FE
:203B2000407EF895C4A3748EF081E888407EFC95C4A3748EA459D8883C7E0096B8A3748E2E
:203B40003092E888447EFC95C4A3748EE481E888447EFC95C8A3708E6059DC88387E00967D
:203B6000B8A3748E9096E888447E0096C4A3748E2482E888447EFC95C8A3748EA859DC8856
:203B80003C7E0096B8A3748E9C96F088447EFC95C4A3708E7882EC88447EFC95C4A3748EEC
:203BA000205BE0883C7E0096B8A3748E0897F088407EFC95C4A3748E0883EC88407EFC9558
:203BC000C4A3748ED05ADC883C7E0096B8A3708E7097F088447E0096C4A3748E8476E8889B
:203BE000407E0096C4A3748E785AE088387E0496B8A3748EAC97F088447E0096C8A3708EA5
:203C00001077EC883C7EFC95C0A3748E685AE0883C7E0096B4A3748E789CF488447EFC9543
:203C2000C4A3748E8077EC883C7EFC95C0A3748EB45AE4883C7E0096B4A3748E709CF48855
:203C4000407EFC95C4A3708E8C77EC88407E0096C0A3748E005BE4883C7E0096B4A3748E10
:203C60005C9CF888407E0096C4A3748E8077F088407E0096BCA3748E145FE488387E0096C0
:203C8000B8A3788E849CF888407E0096C4A3748E6077EC883C7E0096BCA3748E585EE48848
:203CA000387EFC95B4A3748EB09CF888447E0096C4A3748E3871EC883C7EFC95C0A3748E0A
:203CC000185EE4883C7E0096B4A3748EBC9CFC88407EFC95C4A3748E5871EC88407E009634
:203CE000BCA3748E745EE488387E0096B4A3748E44A2F888447EFC95C8A3708E3471F08841
:203D00003C7E0096BCA3748EE45EE8883C7E0496B4A3748E94A2FC88447E0096C4A3708E1C
:203D2000E870F088407E0096BCA3748E1C66E8883C7E0096B4A3748EB0A2FC88407EFC953E
:203D4000C4A3708EB870F0883C7E0096BCA3748E8465E888387E0096B8A3748E94A2FC88F1
:203D6000447EFC95C4A3748E886FF0883C7E0096BCA3748E5465EC88387E0096B4A3748E95
:203D800028A2FC88447EFC95C8A3708E786FEC883C7E0096BCA3748E6865E888387E009684
:203DA000B4A3748E0CA6FC88447EF895C8A3708E446FF0883C7E0096BCA3748EA065E8886B
:203DC000387E0096B8A3708E54A6FC88447EFC95C4A3748EE46EF0883C7E0096BCA3708E8D
:203DE000306EEC883C7EFC95B8A3748EC0A6FC88447EF895C8A3788EC06EF0883C7E009669
:203E0000BCA3748EE06DEC883C7E0096B8A3748E0CA70089447EFC95C4A3748E8C6DF0886A
:203E20003C7EFC95BCA3748EDC6DEC883C7E0096B8A3748EDCA60089447EFC95C8A3708EA5
:203E4000906DF0883C7E0096BCA3748E086EEC88387E0096B8A3748E50A90489447EFC95D0
:203E6000C8A3708E586DF0883C7E0096BCA3708E5C6EF088387E0096B8A3708E74A904895E
:203E8000407EFC95C4A3708EF86CF4883C7E0096B8A3748E706EF488387E0096B8A3748EDE
:203EA0008CA90489447E0096C4A3748ECC6CF0883C7E0096B8A3748E6C77F4883C7E009673
:203EC000B8A3748E7CA90489447EFC95C4A3708E086DF4883C7E0096B8A3708E5477F4883A
:203EE0003C7E0096B8A3708E38A90489447EFC95C8A3748ED86BF4883C7E0096B8A3748E7F
:203F00009C77F4883C7E0096B8A3748E18A90889447EFC95C4A3708EA86BF4883C7E00967C
:203F2000B8A3748EF877F4883C7EFC95B8A3748E28AB0489447EFC95C8A3708E386CF48855
:203F4000407E0096B8A3748E9C77F4883C7E0096BCA3708E74AB0889447EFC95CCA3708E04
:203F6000286BF488387E0096BCA3788E1C81F8883C7E0096BCA3748E1CAB0489447EFC950C
:203F8000CCA3748E0C6BF4883C7E0096B8A3748EDC80F4883C7E0096BCA3748EC8AA048988
:203FA000407EFC95C8A3708E8C68F088387E0096B8A3708ED080F8883C7E0096BCA3708EBB
:203FC00078AA0489447EFC95C8A3748ED867F0883C7E0096B8A3708E2881F4883C7E00969D
:203FE000BCA3708E44A80489407EF895C8A3708E5867F4883C7E0096B4A3708E6481F488F6
:204000003C7E0096BCA3708ED0A80489447EF895CCA3708E2067F488387E0096B8A3748E86
:204020008C84F888407E0096BCA3708E14A90489447EFC95C8A3748E5867F488387E0096AE
:20404000B8A3708E7C84F8883C7EFC95C0A3708EE8A80489447EFC95C8A3748EC064F08862
:20406000387E0096B8A3748EAC84F8883C7E0096C0A3708E6CA80489407EF895CCA3708EDD
:204080007064F088387E0096BCA3748E1485F8883C7EFC95C0A3708EE0A10489407EFC9505
:2040A000C8A3708E0064F088387EFC95B8A3748E4885F888387EFC95C0A3708EA8A104894C
:2040C000447EF895CCA3708EA463F088387EFC95B8A3748E3C85F888387EFC95C4A3708E14
:2040E000B8A10089407EFC95CCA3708EC863F088387EFC95B8A3748E4488F8883C7E00963F
:20410000C0A3708EBCA10489407EFC95CCA3708E3064F088387E0896B8A3708EBC88FC8817
:204120003C7E0496C0A3748EC4A10889407E0496C8A3708E4060F488387E0896B8A3748E42
:20414000608900893C7E0496BCA3748EA4A10889407E0896C4A3708EE05FF488387E089692
:20416000B4A3708E8889FC883C7E0896B8A3748E3C980489447E0096C0A3708EB05FF088FF
:204180003C7E0896B4A3748E5C89FC88407E0496B8A3748E0C980489407E0096C0A3708E6A
:2041A000E05FF488387E0896B0A3748EC08C00893C7E0896B8A3708EAC970489407E0896E9
:2041C000BCA3708E2860F088387E0496ACA3748E008DFC88407E0496B8A3708E54970489A7
:2041E000407E0096C0A3748E645CF488387E0496ACA3708EA08D00893C7E0496B8A3748EC6
:204200004C970489407E0496BCA3748E0C5CF4883C7E0496A8A3708E188E04893C7E04966D
:20422000B8A3708EDC8C0489407E0496B8A3708EE05BF088387E0896A8A3708E2C8EFC88F1
:204240003C7E0496B4A3708EA48C0489407E0496B8A3748E285CF488387E0896A8A3708EA6
:20426000549200893C7E0496B4A3708E2C8C04893C7E0096B8A3748E8C5CF488387E08967C
:20428000ACA3748EB4920489407E0096B4A3748ED88B0489407E0496B8A3748E405AF48892
:2042A000387E0896A8A3748E0C930489407E0496B4A3708E9C8B0489407E0496B4A3708E23
:2042C0009459F488387E0496A8A3748E48930089407E0496B4A3708E247F0089407E049643
:2042E000B4A3708E5859F488387E0896A8A3748E6C930489407E0096B4A3748E247F048932
:20430000407E0096B0A3748EB059F488347E0496A8A3748E80930889407E0096B4A3748E85
:20432000387F04893C7E0096B0A3748E445AF488387E0896A4A3748E34990489407E00962F
:20434000B4A3748EC87E0489407E0496B4A3708E9C5AF488387E0496A8A3708EAC990889A3
:204360003C7E0096B4A3748E1C7E00893C7E0496B0A3748E3C5CF488347E0496A4A3748E1F
:20438000D0990489407E0096B4A3708E947DFC883C7E0496ACA3708EE85BF488387E049639
:2043A000A4A3708EB0990489407E0096B0A3748EE872FC883C7E0496ACA3708E105CF488D2
:2043C000387E0496A4A3748E5C990889407E0096B4A3748E3872FC883C7E0496ACA3748E3E
:2043E000D85CF488387E0496A4A3748E3CA00889407E0496B4A3708EFC71FC883C7E009619
:20440000ACA3708E4C5DF488387E0496A4A3708EF4A00889407E0496B4A3708E9C71FC8832
:204420003C7E0496ACA3748E4C63F488387E0496A4A3748E14A10889407E0096B0A3748E24
:204440008071FC883C7E0496ACA3748E6063F4883C7E0496A4A3748ECCA00889407E009615
:20446000B4A3708EF86FF8883C7E0496A8A3748EE063F488387E0896A4A3708E58A008897E
:20448000407E0096B4A3708E986FF888387E0096ACA3748E4864F488387E0496A4A3748E8E
:2044A00090A50889407E0096B4A3708E106FFC883C7E0496ACA3748EAC64F888387E009609
:2044C000A8A3708E18A60C89407E0096B4A3748E046FFC883C7E0496A8A3708E446DF888CE
:2044E0003C7E0896A4A3748EB8A60C89447E0096B4A3708E186FFC88387E0496A8A3748ED3
:20450000B06DF888387E0896A8A3708EC0A70889447E0096B4A3708EF46EF8883C7E00968A
:20452000A8A3748E0C6EF888347E0496A4A3708EE8A50889407EFC95B0A3708E146DF888E4
:204540003C7E0096A8A3748E6C6EF888387E0096A4A3748E84A50C89447EFC95B0A3748E69
:20456000E86CFC883C7E0496A8A3748EB86EF4883C7E0096A4A3708E70A90C89407EFC958E
:20458000B4A3708E0C6CFC88387E0496A8A3708ECC6EF888387E0096A8A3708EF8A90889B0
:2045A000447EFC95B4A3708E206CF8883C7E0096A4A3748E9478FC883C7E0496A4A3708E85
:2045C00018AA0C89407EFC95B4A3748E646CF8883C7E0096A4A3708E4079FC88387E00966E
:2045E000A4A3748EF4A90C89447E0096B4A3748E006AFC88387E0096A4A3748E0C7AFC8802
:204600003C7E0496A4A3748EE8A91089407E0096B4A3708EAC69FC883C7E0496A8A3708EF4
:20462000A87AFC883C7E0496A8A3708E00AB0C89447E0096B4A3708E3469F888387E0496DD
:20464000A4A3748EB87AFC88387E0496A4A3708EF0AA1089447EFC95B0A3708E0069FC8802
:204660003C7E0496A4A3748E148200893C7E0096A4A3708E80AA1089447EFC95B0A3708E82
:204680006069FC88387E0496A4A3748ECC8200893C7E0096A4A3708E84AA0C89447EFC95B2
:2046A000B0A3708E8466FC88387E0496A4A3748E988300893C7E0096A4A3708EB4AA0C8976
:2046C000447E0096B4A3708E1866F888387E0496A4A3708EE48300893C7E0096A8A3708E11
:2046E00084A60C89447EFC95B4A3708EC065F8883C7E0496A4A3708EE08304893C7E0096D5
:20470000A8A3708EE4A51089447EFC95B4A3748E7465F888387E0096A0A3748E488604893D
:204720003C7E0096A4A3708E20A51089407EFC95B4A3748EB465F888387E0496A0A3708EB4
:20474000B88600893C7E0496A4A3708E4CA40C89447EFC95B0A3708E4861F888387E00965B
:20476000A4A3748E108700893C7E0096A8A3708E18A40C89447EFC95B0A36C8E0461F88861
:204780003C7E0496A4A3748EC08704893C7E0096A4A3708E38A40C89447E0096B4A3748EF1
:2047A000E460F888387E0496A4A3708E048804893C7E0096A8A3708E789B0889447E0096F2
:2047C000ACA3708E3061FC88387E0096A0A3748EF88704893C7E0096A8A3708E209B0C89F1
:2047E000407EFC95B0A3748E8061F888387E0096A0A3708EF48B04893C7E0096A8A3708E82
:20480000209A0C89407EFC95B0A3708E9061F888387E0496A0A3708EA88C04893C7E009696
:20482000A8A3708E6C990C89407E0096B0A3708E005DF888387E0496A0A3748E508D048914
:204840003C7E0096A8A3708E14990C89407E0096B0A3708E505CF888387E0496A0A3708E1B
:20486000388D04893C7E0096A8A3708E848E0889407E0096B0A3708E7C5CF8883C7E049659
:20488000A4A3708E648D08893C7E0096A8A3708E088E0C89407E0096ACA3748EF45CFC8814
:2048A0003C7E0496A0A3748E44920889407E0096A8A3708E008D0889407E0096B0A3748E94
:2048C000085DFC88387E0496A0A3708EC4920889407E0096A8A3748E288C0C89447E009635
:2048E000B0A3708E8059F888387E0496A0A3748E28930889407E0096A8A3708E9C8B0C89D4
:20490000407E0496A8A3788E4C59F888347E0496A0A3748E749308893C7E0096A8A3748E03
:20492000047F0889407E0496ACA3708EB859FC88387E0496A0A3708E98930889407E009688
:20494000ACA3708EAC7E04893C7E0096ACA3748E5C5AF888387E0896A0A3748EBC990C89F9
:20496000407E0096ACA3748E8C7D08893C7E0096ACA3748EAC5AF8883C7E0496A0A3748E38
:20498000509A0C89407E0096ACA3708E3C7C08893C7E0496A8A3748EA05CFC883C7E049639
:2049A0009CA3748EA89A0C89407E0096ACA3748E487B0489407E0496A4A3748EAC5CFC88BD
:2049C0003C7E04969CA3748E009B0889407EFC95ACA3748EB07AFC883C7E0496A8A3708E2B
:2049E000305DF888387E0496A0A3708E349B0889407E0096ACA3748E447100893C7E009686
:204A0000A8A3748E385EF888387E04969CA3748EA09B0C89447E0096B0A3748ED470008958
:204A20003C7E0496A4A3708EE05EFC883C7E0096A0A3748EC8A20C89447E0096ACA3748EDE
:204A4000887000893C7E0096A4A3748E305FFC883C7E04969CA3708EFCA20C89407E009611
:204A6000ACA3708E647004893C7E0496A4A3748E9066F888387E04969CA3708E14A30C899C
:204A8000407E0096ACA3708E687000893C7E0096A0A3748E6867FC883C7E0496A0A3748E93
:204AA00050A31089407EFC95ACA3708E886E00893C7E0496A4A3748EA868FC88387E0496CE
:204AC000A0A3748EE4A30C89407EFC95B0A3708E146E00893C7E0496A4A3748E9469FC88AC
:204AE000387E04969CA3748EBCA81089407E0096B0A3708E9C6D00893C7E0496A4A3748E54
:204B0000446AFC883C7E0496A0A3748EB8A81089407EFC95B0A3748E346D04893C7E0096AF
:204B2000A4A3748E947300893C7E0096A0A3748EC4A81089407E0096B0A3748E186D00894B
:204B40003C7E0096A4A3748EA4740089387E0096A0A3748EE4A81089407EFC95B0A3748EC1
:204B6000A06A00893C7E0096A4A3748E28760089387E0096A4A3748E58A91089407EFC9564
:204B8000B0A3708E186A00893C7E0496A0A3748E94770089387E0096A4A3748EA0AB108913
:204BA000407EFC95B4A3748EB06900893C7E0096A4A3708E647800893C7E0096A8A3748E14
:204BC00040AB1489407EFC95B0A3708E5C690089387E0496A4A3708E347904893C7E04963C
:204BE000A8A3708EC0AA1089407EFC95B4A3748E50690089387E0496A0A3748E608204897B
:204C0000387E0096A8A3748E54AA1089447E0096B0A3748E60690089387E0096A4A3748ED0
:204C2000488300893C7E0096A4A3748E60AA1089447EFC95B4A3748E6065FC88387E0096A3
:204C4000A4A3748EF4830489407E0096A8A3748EECA91089447EFC95B4A3708ED864FC88D0
:204C6000387E0096A4A3708E0C8404893C7E0096A8A3708ED8A41089447EFC95B4A3708E30
:204C80009064FC88387E0096A8A3748EF88308893C7E0096A8A3708E94A31089447E009636
:204CA000B4A3748E8C640089387E0496A0A3708EF08704893C7E0096A4A3748E88A2108931
:204CC000407EFC95B0A3708E8464FC88387E0096A4A3748E008908893C7E0096A8A3748E7C
:204CE000E4A11089407EFC95B4A3708E745FF488387E0096A4A3748EBC8900893C7E0096F0
:204D0000ACA3748EB8A00889407EFC95B4A3708EC45EF488347E0096A4A3708EEC8900898C
:204D20003C7E0096ACA3748EF4950489407EFC95B0A3708E645EF488387E0096A4A3748E49
:204D4000108A04893C7EFC95B0A3748EA0940889407EFC95B0A3748E605E4489387E00964C
:204D6000A4A3708E308FCC893C7E0096A8A3708E9C931C8A407E0096A8A3748E6C5E2C8A4B
:204D8000387E089698A3748E8490508A3C7E0496A0A3748E6892608A3C7E0496A4A3708E7E
:204DA000205A408A387E0C9694A3748E1C91348A3C7E0896A0A3708EC490448A407E08969C
:204DC000A8A3748EAC59288A387E0896A0A3748E7C913C8A407E0896ACA3708E70833C8A01
:204DE000407E0896B8A3708E8859308A387E0C96ACA3748EBC91448A3C7E0896BCA3748EE6
:204E00002482408A3C7E0C96C4A3748EEC593C8A387E1496C0A3748E5492488A407E109671
:204E2000D4A3708E2C81448A3C7E1096DCA3748E445A388A347E1896D8A3748E3099408AD1
:204E4000407E1096ECA3748E407F3C8A407E1096F4A3748E985A3C8A387E1496ECA3748E32
:204E6000A899448A3C7E109600A4748E587D4C8A3C7E149608A4748E645C408A347E189676
:204E800000A4748E289A508A407E109614A4748E907B388A387E109618A4748E3C5D2C8A7C
:204EA000347E189614A4748ED89A508A3C7E14962CA4748E7871408A3C7E149628A4748E71
:204EC000585E648A347E149628A4748EC09B708A407E14963CA4748EAC70748A3C7E1496E7
:204EE00038A4748E505F688A347E1C9638A4748E2CA3808A3C7E14964CA4748E2C707C8A20
:204F0000387E189644A4748E2C60708A387E189644A4748EF8A3A88A447E149654A4748E3C
:204F2000846FA88A3C7E1C9654A4748E6868C08A487E1C9654A4788EA4A4D88A607E189620
:204F400068A4748EB06FC08A687E1C9660A4708EF469C88A747E1C9660A4748E78A5DC8A64
:204F6000847E189674A4708EDC6DD48A887E1C9670A4708EB46B148BA07E20966CA4748E56
:204F800064A5548BBC7E189680A4708E4C6D348BBC7E209674A4748E3C6D208BBC7E1C965D
:204FA00074A4748E98A9588BD87E189684A4748E986C488BD07E209678A4748E306E3C8B27
:204FC000CC7E209678A4748EDCA98C8BF07E209688A4708EF86BB88BF87E20967CA4748ED5
:204FE000C878D48B047F209678A4748E68AAFC8B147F209684A4748E006CF08B047F289687
:2050000074A4748E887AF88B007F249670A4748E6CAA108C147F209678A4748E90690C8CF8
:20502000147F24966CA4748EA87C348C207F28966CA4748E18AA588C347F249674A4748E91
:20504000BC68588C387F2C9660A4748E407E8C8C347F289664A4748E08AAE08C587F2496C9
:205060006CA4708EF467348D647F2C9658A4748EA47FA08D607F2C9658A4748EA8A99C8EF9
:20508000807F2C9660A4748EB8674090A47F309654A4708ED8805492B07F349650A4748E4E
:2050A00048A9CC94C07F30965CA4748EB467A497E47F389648A4748E3885A09AF07F3896EF
:2050C0004CA4748EC0A7549D0C80389654A4708E80679C9F08803C9644A4748EC885D0A013
:2050E000DC7F40964CA4708E64A684A1C87F40965CA4708E9462F8A1AC7F409650A4748EC1
:20510000B086B0A2C87F40965CA4748EA8A5ECA314803C966CA4708EC861B8A43080489685
:2051200064A4748E6C878CA5388040966CA4748EF49C2CA6488040967CA4748E946184A660
:205140005080489674A4708ED487DCA6588044967CA4708E649B30A768804C9688A4708E14
:2051600058616CA7848050967CA4748E4C8CCCA7A480589680A4708E5C9948A8B0806096CD
:205180008CA4708EDC60C4A8BC80689680A4748E588D60A9E080689688A4748E9C97ECA997
:2051A000EC80709690A4708E105C3CAAF080809680A4748E7C8E94AA0881849688A4748E34
:2051C0009C96F0AA6C81989690A4748E845B28AB9481A89680A4748E2C8F70ABA881AC9646
:2051E00088A4748E248AACABB481B4968CA4748E5C5B00ACCC81C49680A4708E848F78AC68
:20520000D881C4968CA4748E3C88DCACE481C89690A4708E705B60AD1882DC9684A4748E5A
:20522000F09404AE4082DC9690A4708E0C8690AE7482F09694A4708EF45A14AF7C82FC96AF
:205240008CA4748E409658AE4882D896A0A4708EA48450AD2082D096ACA4708E6C5A84AC55
:205260001482D496A4A4748EBC9718AC3882E096B8A4708EB48280AC28832897BCA4748E15
:20528000F45AE4ACBC834897B4A4708E589848AD40845497C4A4748E94805CADBC84589772
:2052A000C0A4748ED05B5CAD90857097B8A4748E8C9884AD78877497CCA4748EB873A8AD89
:2052C0005C8A8897C0A4748EB05CB0AC4C8D6897B4A4748EC89808ABA08F6C97C4A4748E1A
:2052E000287290A9A8917897C4A4748ED85D38A888936897B8A4748EC8A010A7509574978D
:20530000C8A4748E1C7118A620979897C0A4748E085F64A5D898A097B4A4708EB4A100A521
:20532000A89AB497C0A4748EFC7028A5189DF497B0A4748E4C6688A5A89F1498A4A4788E8B
:2053400060A2E4A514A21898ACA4748E007140A658A4409898A4708E6067B4A6B0A66C982A
:205360008CA4708E00A340A7D8A8689890A4708EC46EBCA7CCAA7C9880A4748E1C69C0A693
:2053800028AC689878A4748EDCA4A0A4E4AC449884A4708EA06F88A26CAD289874A4748E99
:2053A000E06B88A008AE38986CA4748E48A9E89E00AF809874A4708E306F489DE8AFA0983B
:2053C00058A4748E546D289CECB0C4984CA4708EACA9249B18B2D4984CA4708EB86EDC9991
:2053E00020B3E09838A4708E8076BC9824B4E8982CA4708E4CA9B8973CB5F09830A4708E89
:20540000486EB4964CB6209920A4708EB077AC9548B73C9914A46C8E6CA970944CB8649907
:2054200020A4708E746BD0923CB9A09910A4708E4479349094B9AC9910A46C8E48A9608CEB
:2054400098B980991CA46C8E946AC087B8B9809910A46C8EF07A4882ECB9889910A4708EFF
:2054600094AAF07E7CBAE8991CA46C8EF469B4801CBB2C9A08A4708E187CC081D4BB709AC9
:2054800008A4708E24AA2C8264BC609A10A46C8EA0696482FCBC709A08A4708EFC82F082D3
:2054A000D0BDA49A08A4708EDCA98883B4BE089B14A46C8E9869C8838CBFE09B04A4708E68
:2054C000CC83188470C0189D04A4708E8CA9508440C19C9E0CA4708EB0696084F8C138A0D6
:2054E000F8A3748E9084588384BE949C18A4748EA4A8588250B88C956CA4748E7C65D88155
:20550000E0B2F49194A4748E3085D08108AE30929CA4748EC0A7F481E8A9D4939CA46C8E6C
:205520008464FC81C0A55C9568A46C8E9485748278A0CC9550A46C8E0CA114835890C895AB
:205540003CA4688E18647487C083C89518A4708ED8851488AC7AC0951CA46C8E38A04488D2
:20556000B07DB49524A46C8E04644888207EB89514A4708EF8896088347EC09518A4708EF0
:20558000E89E74883C7EC8951CA46C8EF0636488347ED49508A46C8EBC8A7488387ED89553
:2055A0000CA4708E9C9D8088407EDC950CA46C8E105F7888387EE895F4A36C8E7C8B8888D9
:2055C0003C7EE895F4A3708E589C9888407EEC95F0A36C8E4C5E8488347EF095DCA3708EB5
:2055E000F48B98883C7EF095E0A36C8E9891A088407EF095E0A36C8E0C5E9088387EF09582
:20560000D0A3708E608CA0883C7EF495D8A36C8E7C90A488407EEC95D8A36C8EF05D9888F4
:205620003C7EF895C8A36C8E9091A8883C7EF095CCA36C8EE48EA888407EF095D0A36C8E73
:20564000F05D9C88387EF895BCA36C8E4892AC88407EF095C8A3708E5C8DAC88407EF09523
:20566000CCA3708E985AA488387EF495BCA3708EF892B4883C7EF495C8A36C8EE88BB888E2
:20568000407EF095C4A36C8E145AA888387EF495B8A3708E9493B888407EF495C0A36C8E25
:2056A000887EB888407EF495C0A36C8EEC59AC88347EF495B4A36C8E0494C0883C7EF895D4
:2056C000C0A36C8E6C7DBC883C7EF495BCA36C8E305AB488387EF895B0A3708E289AC88838
:2056E000407EF495BCA36C8E7C7BC488407EF495B8A36C8EB85AB888347EF895ACA3748E49
:20570000CC9AC8883C7EF495B8A36C8E8879C8883C7EF895B8A3708EAC5ABC88387EFC95B9
:20572000A8A3708E6C9BD088407EF495B8A3708E0878CC88407EF895B0A36C8ED05DC4883C
:20574000387EF895A8A3708E249CD488407EF895B8A3708E7077CC883C7EFC95B0A3748E22
:20576000E85EC488387EFC95ACA3708E009DDC88407EF895B8A3708E1071D0883C7EFC953A
:20578000B0A3748E4460C888387E0096A8A3708EC89CE088447EFC95B8A3708E6870D08883
:2057A000407E0096ACA3748E6461CC88387E0096A8A3708EA8A3E088447EFC95B4A3708E3B
:2057C000EC6FD8883C7E0096B0A3748EE461D0883C7E0096A4A3708E4CA4E488407E009687
:2057E000B8A3748EA46FD4883C7E0096ACA3708EE469D4883C7E0096A4A3748EECA4E48802
:20580000407EFC95B4A3748EF06FD8883C7E0096ACA3748E2C6BD4883C7E0096A4A3708EF8
:205820004CA5E888447EFC95B0A3708EFC6DD8883C7E0096A8A3748E386CD8883C7E0496A5
:20584000A4A3708EECA4E888447EFC95B4A3748E606DDC883C7E0096A8A3748E446DD88878
:205860003C7EFC95A4A3748E04A9EC88487E0096B4A3708ECC6CDC88407E0096A4A3748E89
:20588000046EDC883C7E0096A0A3748E60A9EC88447E0096B0A3748EB86CE0883C7E049693
:2058A000A4A3748EBC77E0883C7E0096A4A3748E98A9F088447E0096B0A3748EE06CDC8855
:2058C0003C7E0096A4A3748EAC78E0883C7E0096A0A3748EA0A9F088487EFC95B0A3748EA1
:2058E000846ADC883C7E0096A0A3748EE479E0883C7E0096A0A3748EB4A9F088487E009636
:20590000ACA3748E346AE0883C7E0496A4A3708E187BE4883C7E0096A0A3748EF4AAF488E9
:20592000487E0096B0A3708ED469E4883C7E0496A0A3748EC07BE8883C7E0496A4A3708E34
:2059400090AAF488447E0096B0A3708E9869E0883C7E0496A4A3708EF87BE888447E0096AB
:20596000A0A3748E50AAF488447E0096ACA3748E6069E4883C7E08969CA3708ED882E8882F
:205980003C7E0496A0A3708E24AAF488487E0096ACA3708ED069E4883C7E04969CA3708E49
:2059A000A083E8883C7E0496A0A3748E34AAF888447E0096ACA3708E5466E8883C7E04963A
:2059C00098A3748E4884EC88407E0496A0A3748E00AAF888447E0496ACA3708EC865E8883D
:2059E0003C7E04969CA3748E5484F088407E00969CA3708EE8A4FC88487E0096ACA3708E78
:205A00006465E8883C7E08969CA3708EF083F0883C7E0496A0A3748E14A4FC88407E0096A4
:205A2000ACA3708E5C65E8883C7E049698A3748E4087F088407E0496A0A3708E90A3FC88C8
:205A4000407E0096ACA3708E8465E888387E049698A3708EDC87F088407E0496A0A3748E4B
:205A600064A30089447E0496A8A3708E1061EC883C7E04969CA3708E8088F4883C7E08969F
:205A80009CA3708EB0A30089407E0496A8A3708EC860E888387E049698A3708EA888F4887F
:205AA000407E04969CA3748E809AF888447E0496A8A3708E8060EC883C7E089698A3748E25
:205AC0001488F488407E0496A0A3708ED499FC88447E0496A4A36C8E8860F0883C7E0896CF
:205AE00098A3748EBC8BF888407E0496A0A3748E28990089447E0096A0A3708EA860EC88A6
:205B00003C7E089694A3788E248CF888407E04969CA3708EE098FC88407E0496A4A3748E8E
:205B2000A05CEC883C7E089694A3748E848CF888407E049698A3748ED898FC88407E0496F3
:205B4000A0A3708E7C5CEC883C7E089694A3748E108DF888407E04969CA3748EFC8EF88867
:205B6000407E0496A0A3708EB45CEC883C7E089694A3748EF08CF888407E0496A0A3708EE2
:205B8000F88EFC88407E0496A4A3708E0C5DEC883C7E089694A3748E988CFC88407E0496F0
:205BA0009CA3708E9C8EFC88407E0496A0A3708E605DF088387E089694A3748E8891FC8802
:205BC0003C7E04969CA3708E388E0089407E0496A0A3708E845DE8883C7E089694A3748E6A
:205BE000E891FC88407E0496A0A3708E248E0089447E0496A0A3708EF059EC883C7E0C961E
:205C000094A3748ED891FC88407E08969CA3748E388EFC88447E0496A0A3708EE859F08821
:205C2000387E089694A3788EB491FC88407E04969CA3708EC882FC88407E0496A0A3708E0E
:205C4000605AF0883C7E089694A3708E7491FC88447E0496A0A3708E3883FC88407E0496C8
:205C6000A0A3748ED45AF0883C7E089694A3748E68970089407E0496A0A3748EA883FC88D4
:205C8000407E0496A0A3708EEC5AF0883C7E0C9694A3748E8C970089407E0496A0A3748ECF
:205CA0007C83FC88407E0496A0A3708E705AF088387E049690A3748E54970089407E049635
:205CC0009CA3748EA883FC88407E04969CA3748EB85AEC88387E089690A3748EE896008925
:205CE000407E0496A0A3708EA077F888407E089698A3748E045BF088387E08968CA3748E7F
:205D000040960089407E0496A0A3708E8877FC88407E04969CA3748E2C5BF088387E08961C
:205D200090A3748E649C0489447E0496A0A3708E6877FC88407E08969CA3708E045BF08831
:205D4000387E089690A3748E749C0489447E0496A0A3708EE077FC88407E08969CA3708E0C
:205D60002C5EF4883C7E089690A3748E389C0489447E04969CA3748E9478FC883C7E0496AE
:205D800094A3748EF05DF488387E089694A3748EB09B0089407E0496A0A3708E2C71F888EA
:205DA000407E049698A3748E385EF088387E089690A3748E2C9B0489407E0496A0A3708ECA
:205DC000F870F888407E089698A3708E785EF0883C7E0C9690A3748EA89A0489407E049640
:205DE000A0A3708EB070FC88407E089698A3748E345EF088387E0C9690A3748E80A10489E0
:205E0000407E0496A0A3708EEC70F8883C7E08969CA3708E985DF088387E089690A3748E82
:205E200000A10489447E0496A0A3748EA071FC88407E049694A3748E4463F488387E0896F6
:205E400094A3748E24A00489407E0896A0A36C8E4072F8883C7E0C9698A3708EC862F488B2
:205E6000387E089690A3708EE09E0489407E0496A0A3708ED86EF8883C7E089694A3748EA2
:205E80001862F488387E0C9694A3748E0C9E0489407E0496A0A3708E746EF8883C7E0C96ED
:205EA00098A3748EA861F888387E149690A3748E28A40489407E0C969CA3748ED06EFC88CB
:205EC0003C7E109690A3748E0861F888387E10968CA3748E20A40C89407E0C9698A3708EC5
:205EE000946FFC883C7E109690A3708E4868F888387E149688A3748E8CA30889447E0C96A9
:205F000098A3708E5070FC883C7E10968CA3708EF467F888387E109688A3748EF0A20889F0
:205F2000407E089694A3708E186EF8883C7E109688A3708EA867F488387E149684A3748E2D
:205F400090A20889447E0C9694A3708E106EF8883C7E109688A3748EF866F4883C7E109620
:205F600084A3708E6CA70889447E089690A3708E506EF8883C7E0C9684A3708EF065F88833
:205F80003C7E0C9684A3748E10A70889407E0C9690A3748E086FF8883C7E109688A3748E1B
:205FA0006C6DFC883C7E109684A3748E54A60C89407E089690A3748EBC6FFC883C7E0C96D0
:205FC00088A3748EE06CF8883C7E0C9680A3748E5CA50889407E0C9690A3708E286DF8880F
:205FE0003C7E0C9688A3748E446CF888387E0C9680A3748EBCA40889407E089690A3708EED
:20600000346DFC883C7E089684A3748E506BF888387E0C9680A3748E58A40C89407E0C9631
:2060200090A3748E786DF8883C7E0C9684A3748EF069F888387E0C9684A3748E10A808899E
:20604000447E089690A3708EF86DF888387E0C9684A3708E6868F8883C7E0C9680A3748E7C
:2060600044A70889447E089690A3708E8C6EFC883C7E0C9684A3748E8C70F4883C7E0C963C
:2060800084A3748E94A60889407E049690A3708EF06EF888387E0C9688A3708E906FF888A5
:2060A000387E0C9680A3708E1CA60489407E08968CA3708E206CF888387E0C9684A3748E02
:2060C000786EFC883C7E089680A3748EC8A50889407E089690A3708E8C6CFC88387E0C967A
:2060E00084A3708EFC6CF888387E0C9680A3708E0CA90889407E089690A3708E346DF88826
:206100003C7E0C9684A3748E5C6BFC883C7E0C9680A3708E44A80C89407E04968CA3708E2C
:20612000D06DF888387E0C9680A3748E9473FC88387E0C9680A3748EA0A70889407E0496ED
:2061400090A36C8E2C6EF8883C7E0C9680A3708E5C72F8883C7E0C9684A3708E40A7088934
:20616000447E08968CA3708E3C6BFC883C7E0C9680A3708E0471F8883C7E0C9680A3708E78
:2061800018A70C89447E089690A3708EC86BFC883C7E0C9680A3788E746FF8883C7E10961B
:2061A00080A3708E30AA0C89407E08968CA3708E9C6CF888387E0C9680A3708ED46DF88804
:2061C0003C7E0C9680A3708E7CA90889407E08968CA3708E606DFC883C7E089680A3708E39
:2061E0009076FC883C7E0C9680A3748EC0A80889407E089690A3708ECC6DFC883C7E0C96F5
:2062000080A3708E1C75F8883C7E0C9680A3708E2CA80889447E08968CA3708EF46AFC88FB
:206220003C7E0C967CA3708E5C73FC88387E08967CA3708EFCA70889407E08968CA3708E64
:20624000786BFC88387E0C9680A3708E7C71FC883C7E089680A3708E10A80C89407E0896CB
:206260008CA3708E446CFC883C7E089680A3708E9C6FF888387E0C967CA3748E74AA0C898D
:20628000407E049688A3708E106DF888387E0C9680A3748ED86DF8883C7E109680A3748EB9
:2062A00090A90889407E08968CA3708E9C6DF888387E0C967CA3708EF076F888387E0C964F
:2062C00080A3748ECCA80889407E089688A3708EDC6DFC88387E0C967CA3748EC474FC880D
:2062E000387E08967CA3748E54A80C89407E04968CA3708E6C6BFC883C7E0C967CA3708E3F
:206300009072F8883C7E0C9680A3708E40A80889407E08968CA3708E2C6CF888387E0C960C
:2063200080A3708E9870FC88387E08967CA3748E68AA0C89407E049688A3708EE46CFC883F
:206340003C7E08967CA3708E9C6EFC88387E08967CA3708EACA90C89407E049688A3708E5E
:206360003C6DFC883C7E08967CA3748EB477FC883C7E0C967CA3748ED8A80C89407E0496DE
:2063800088A3708E606D0089387E0C967CA3708E7875F888387E0C967CA3748E78A80C896E
:2063A000407E04968CA3708EE06AFC88387E089680A3708E1473FC88387E089678A3748E99
:2063C00060A80C89447E049688A3708ED06BF8883C7E0C967CA3748EC470FC883C7E089653
:2063E0007CA3748E48AA1089407E049688A3748EA46CFC88387E0C967CA3708EA46EF888D1
:20640000387E0C967CA3708E88A90C89407E049688A36C8E306DFC883C7E08967CA3708E2E
:206420006477FC883C7E089678A3708ED8A81089407E089688A3708E6C6DFC883C7E089639
:206440007CA3708EF074FC88387E08967CA3748E5CA81089447E049688A3708E946DFC881B
:20646000387E089680A3708EAC72FC88387E0C9678A3708E24A80C89407E049688A3708EB2
:20648000086CFC883C7E0C967CA3708E3C70FC88387E089678A3748EC4A70C89447E04968E
:2064A00088A3708EF46CFC883C7E08967CA3748E286EFC883C7E0C9678A3748E88A90C89FD
:2064C000407E089688A3708E9C6DFC883C7E08967CA3708E686CFC88387E0C9678A3708E6C
:2064E000E8A80C89407E049688A3708EE46DFC883C7E08967CA3708E1474FC883C7E089648
:2065000078A3708E4CA80889407E089684A3708E186EFC88387E0C9678A3708E7871FC8874
:206520003C7E089674A3708EB8A70889407E049688A36C8E746CFC883C7E089678A3708EAC
:20654000D06EF888387E089678A3708E34A70C89407E049684A3708E606DFC88387E08967E
:206560007CA3708EB06CFC88387E089678A3708E18A90C89447E049684A3708E006EFC8828
:20658000387E089678A3748EEC6AFC88387E089678A3708E64A80C89407E049688A3708E21
:2065A0005C6EFC883C7E08967CA3708E6872F888387E089678A3708EC4A70889407E0896F9
:2065C00084A36C8E986EFC883C7E089678A3708EC86FFC883C7E089678A3708E38A70C89FF
:2065E000407E049684A3708E1C6DFC88387E089678A3708E3C6DFC883C7E089678A3708E06
:2066000068A60C89407E049684A3748EFC6DFC883C7E089678A3708E106BF888387E0C96A5
:2066200078A3708E2CA80C89407E089684A36C8E846EFC88387E08967CA3708E2869F88863
:20664000387E089678A3708E68A70C89407E049684A3708ED86EFC883C7E08967CA36C8E71
:206660005C70F8883C7E089678A3708EC0A60889407E049688A3708EF46EFC88407E0896A3
:206680007CA3708EB06DF888387E089678A3708E1CA60C89407E049688A3708E206FFC88E8
:2066A000387E08967CA3748E006BFC883C7E0C9678A3708E40A50889407E049684A36C8E12
:2066C000686EFC883C7E0C967CA3708ECC68FC88387E0C9678A3708ECCA30C89407E049662
:2066E00088A36C8EF06E0089387E089678A3708EE066F888387E089678A3708E30A60C8983
:20670000407E049688A36C8E446FFC88387E0C9678A3708E1865FC88387E089674A3708EEA
:20672000A8A50C89407E049684A36C8E706FF888387E08967CA3708E606BF888387E08968F
:2067400078A3708EECA40889407E049684A3708ECC6FF888387E089678A3708EBC68EC88C2
:20676000387E089678A3708EE4A30089407E049684A36C8E306FF0883C7E04967CA3708E9B
:206780006866EC88387E049678A3708E40A20089447E049688A36C8EA86FF488387E04967F
:2067A0007CA3708E7C64EC88387E089678A36C8E3CA50489407E049688A36C8EF06FF48839
:2067C000387E049680A36C8EE062F088387E089678A3708E88A404893C7E049688A3708EEF
:2067E0003070F888387E089684A3708EEC68F088347E08967CA3708EA4A30489407E04969B
:2068000088A3708E9070F488387E049680A3708E4066F088347E08967CA3708E60A2048948
:20682000407E049688A3708E0070F888387E089680A3708EC063F088347E08967CA3708E6A
:2068400078A004893C7E04968CA36C8E5470F888387E089680A3708EDC61F088347E089658
:206860007CA36C8EF8A30889407E00968CA36C8E7C70F888387E049680A36C8E5460F08851
:20688000347E08967CA3708ED8A204893C7E009688A3708EA470F888387E089684A36C8E02
:2068A000A465F488347E04967CA3708EACA104893C7E009688A36C8E3471FC88387E049622
:2068C00080A3708E0063F088347E089678A3708E24A004893C7E009688A3708E2473F88872
:2068E000387E049680A36C8EB060F488347E08967CA36C8E289E04893C7E009688A36C8E6E
:20690000F070F888387E049680A3708E085FF488347E049678A36C8EEC9B08893C7E00967A
